:020000040800F2
:1020000000800020694000086B3300086D33000831
:102010006F330008713300087333000800000000BC
:102020000000000000000000000000007533000800
:102030007733000800000000793300087B33000884
:10204000B9400008B94000087D330008B9400008D5
:10205000B9400008B94000088D33000897330008E4
:10206000B9400008B9400008B9400008B94000086C
:10207000B9400008B9400008B9400008A133000881
:10208000B9400008B9400008B9400008B94000084C
:10209000B9400008B9400008B9400008B94000083C
:1020A000B9400008B9400008B9400008B94000082C
:1020B000B9400008B9400008B9400008B94000081C
:1020C000B9400008B9400008B9400008B94000080C
:1020D000B9400008B9400008B1330008B940000811
:1020E000B9400008B9400008C1330008B9400008F1
:1020F000B9400008B9400008B9400008B9400008DC
:10210000B9400008B9400008D1330008B9400008C0
:10211000B9400008B9400008B9400008B9400008BB
:10212000B9400008B9400008B9400008B9400008AB
:08213000B9400008B9400008A5
:1021380010B5054C237833B9044B13B10448AFF3F9
:1021480000800123237010BDD8000020000000008B
:10215800583B010808B5034B1BB103490348AFF3CB
:10216800008008BD00000000DC000020583B01088A
:10217800034613F8012B002AFBD1181A01387047BF
:1021880081F0004102E000BF83F0004330B54FEA20
:1021980041044FEA430594EA050F08BF90EA020F8D
:1021A8001FBF54EA000C55EA020C7FEA645C7FEA20
:1021B800655C00F0E2804FEA5454D4EB5555B8BF43
:1021C8006D420CDD2C4480EA020281EA030382EAB4
:1021D800000083EA010180EA020281EA0303362D46
:1021E80088BF30BD11F0004F4FEA01314FF4801C19
:1021F8004CEA113102D0404261EB410113F0004F2B
:102208004FEA03334CEA133302D0524263EB4303E1
:1022180094EA050F00F0A780A4F10104D5F1200E7F
:102228000DDB02FA0EFC22FA05F2801841F10001DA
:1022380003FA0EF2801843FA05F359410EE0A5F1AE
:1022480020050EF1200E012A03FA0EFC28BF4CF0DF
:10225800020C43FA05F3C01851EBE37101F0004595
:1022680007D54FF0000EDCF1000C7EEB00006EEBA2
:102278000101B1F5801F1BD3B1F5001F0CD349082C
:102288005FEA30004FEA3C0C04F101044FEA445283
:1022980012F5800F80F09A80BCF1004F08BF5FEA0A
:1022A800500C50F1000041EB045141EA050130BDEA
:1022B8005FEA4C0C404141EB0101013C28BFB1F5FC
:1022C800801FE9D291F0000F04BF01460020B1FA47
:1022D80081F308BF2033A3F10B03B3F120020CDA1A
:1022E8000C3208DD02F1140CC2F10C0201FA0CF0F8
:1022F80021FA02F10CE002F11402D8BFC2F1200C5D
:1023080001FA02F120FA0CFCDCBF41EA0C01904012
:10231800E41AA2BF01EB0451294330BD6FEA04045B
:102328001F3C1CDA0C340EDC04F11404C4F1200246
:1023380020FA04F001FA02F340EA030021FA04F358
:1023480045EA030130BDC4F10C04C4F1200220FAAF
:1023580002F001FA04F340EA0300294630BD21FAED
:1023680004F0294630BD94F0000F83F4801306BFB3
:1023780081F480110134013D4EE77FEA645C18BFA7
:102388007FEA655C29D094EA050F08BF90EA020F3E
:1023980005D054EA000C04BF1946104630BD91EA36
:1023A800030F1EBF0021002030BD5FEA545C05D139
:1023B8004000494128BF41F0004130BD14F5800478
:1023C8003CBF01F5801130BD01F0004545F0FE41EC
:1023D80041F470014FF0000030BD7FEA645C1ABF21
:1023E800194610467FEA655C1CBF0B46024650EA58
:1023F800013406BF52EA033591EA030F41F4002184
:1024080030BD00BF90F0000F04BF0021704730B509
:102418004FF4806404F132044FF000054FF00001DE
:1024280050E700BF90F0000F04BF0021704730B59F
:102438004FF4806404F1320410F0004548BF404274
:102448004FF000013EE700BF42004FEAE2014FEAC9
:1024580031014FEA02701FBF12F07F4393F07F4FA4
:1024680081F06051704732F07F4208BF704793F0A7
:102478007F4F04BF41F40021704730B54FF46074BA
:1024880001F0004521F000411CE700BF50EA0102BD
:1024980008BF704730B54FF000050AE050EA010266
:1024A80008BF704730B511F0004502D5404261EBD6
:1024B80041014FF4806404F132045FEA915C3FF417
:1024C800D8AE4FF003025FEADC0C18BF03325FEAB4
:1024D800DC0C18BF033202EBDC02C2F1200300FA65
:1024E80003FC20FA02F001FA03FE40EA0E0021FA8A
:1024F80002F11444BDE600BF4FF0FF3C06E000BF08
:102508004FF0010C02E000BF4FF0010C4DF804CD74
:102518004FEA410C7FEA6C5C4FEA430C18BF7FEA34
:102528006C5C1BD001B050EA410C0CBF52EA430C62
:1025380091EA030F02BF90EA020F0020704710F1E2
:10254800000F91EA030F58BF994208BF90422CBF71
:10255800D8176FEAE37040F0010070474FEA410C6A
:102568007FEA6C5C02D150EA013C07D14FEA430C88
:102578007FEA6C5CD6D152EA033CD3D05DF8040BF9
:10258800704700BF8446104662468C46194663462B
:1025980000E000BF01B5FFF7B7FF002848BF10F102
:1025A800000F01BD4DF808EDFFF7F4FF0CBF012047
:1025B80000205DF808FB00BF4DF808EDFFF7EAFFC3
:1025C80034BF012000205DF808FB00BF4DF808ED7E
:1025D800FFF7E0FF94BF012000205DF808FB00BF73
:1025E8004DF808EDFFF7CEFF94BF012000205DF8FD
:1025F80008FB00BF4DF808EDFFF7C4FF34BF01200A
:1026080000205DF808FB00BF4FEA410212F50012F6
:1026180015D211D56FF47873B3EB625212D94FEA21
:10262800C12343F0004343EA505311F0004F23FA0B
:1026380002F018BF404270474FF00000704750EA60
:10264800013005D111F0004008BF6FF0004070471D
:102658004FF00000704700BF80F0004002E000BF6C
:1026680081F0004142001FBF5FEA410392EA030F75
:102678007FEA226C7FEA236C6AD04FEA1262D2EBBF
:102688001363C1BFD218414048404140B8BF5B42C4
:10269800192B88BF704710F0004F40F4000020F05D
:1026A8007F4018BF404211F0004F41F4000121F073
:1026B8007F4118BF494292EA030F3FD0A2F10102BD
:1026C80041FA03FC10EB0C00C3F1200301FA03F1FB
:1026D80000F0004302D5494260EB4000B0F5000F1E
:1026E80013D3B0F1807F06D340084FEA310102F1DD
:1026F8000102FE2A51D2B1F1004F40EBC25008BF8F
:1027080020F0010040EA03007047490040EB000058
:10271800013A28BFB0F5000FEDD2B0FA80FCACF159
:10272800080CB2EB0C0200FA0CF0AABF00EBC25086
:1027380052421843BCBFD0401843704792F0000F74
:1027480081F4000106BF80F400000132013BB5E7C7
:102758004FEA41037FEA226C18BF7FEA236C21D03D
:1027680092EA030F04D092F0000F08BF08467047A2
:1027780090EA010F1CBF0020704712F07F4F04D170
:10278800400028BF40F00040704712F100723CBF83
:1027980000F50000704700F0004343F0FE4040F4AD
:1027A800000070477FEA226216BF08467FEA23636B
:1027B8000146420206BF5FEA412390EA010F40F456
:1027C800800070474FF0000304E000BF10F00043A2
:1027D80048BF40425FEA000C08BF704743F0964389
:1027E80001464FF000001CE050EA010208BF7047A4
:1027F8004FF000030AE000BF50EA010208BF70472B
:1028080011F0004302D5404261EB41015FEA010C3F
:1028180002BF84460146002043F0B64308BFA3F137
:102828008053A3F50003BCFA8CF2083AA3EBC25319
:1028380010DB01FA02FC634400FA02FCC2F1200238
:10284800BCF1004F20FA02F243EB020008BF20F06F
:102858000100704702F1200201FA02FCC2F12002D5
:1028680050EA4C0021FA02F243EB020008BF20EACA
:10287800DC7070474FF0FF0C1CEAD0521EBF1CEAF8
:10288800D15392EA0C0F93EA0C0F6FD01A4480EAE6
:10289800010C400218BF5FEA41211ED04FF00063CF
:1028A80043EA501043EA5111A0FB01310CF00040FB
:1028B800B1F5000F3EBF490041EAD3715B0040EA21
:1028C800010062F17F02FD2A1DD8B3F1004F40EBF1
:1028D800C25008BF20F00100704790F0000F0CF0C4
:1028E800004C08BF49024CEA502040EA51207F3A88
:1028F800C2BFD2F1FF0340EAC250704740F4000063
:102908004FF00003013A5DDC12F1190FDCBF00F053
:1029180000407047C2F10002410021FA02F1C2F101
:10292800200200FA02FC5FEA310040F1000053EA9D
:102938004C0308BF20EADC70704792F0000F00F0EB
:10294800004C02BF400010F4000F013AF9D040EAF1
:102958000C0093F0000F01F0004C02BF490011F485
:10296800000F013BF9D041EA0C018FE70CEAD15383
:1029780092EA0C0F18BF93EA0C0F0AD030F0004C03
:1029880018BF31F0004CD8D180EA010000F00040B7
:10299800704790F0000F17BF90F0004F084691F075
:1029A800000F91F0004F14D092EA0C0F01D14202AF
:1029B8000FD193EA0C0F03D14B0218BF084608D178
:1029C80080EA010000F0004040F0FE4040F40000C2
:1029D800704740F0FE4040F4400070474FF0FF0C55
:1029E8001CEAD0521EBF1CEAD15392EA0C0F93EA9C
:1029F8000C0F69D0A2EB030280EA010C49024FEAEE
:102A0800402037D04FF0805343EA111143EA1013A6
:102A18000CF000408B4238BF5B0042F17D024FF45E
:102A2800000C8B4224BF5B1A40EA0C00B3EB510F39
:102A380024BFA3EB510340EA5C00B3EB910F24BF22
:102A4800A3EB910340EA9C00B3EBD10F24BFA3EBA7
:102A5800D10340EADC001B0118BF5FEA1C1CE0D16F
:102A6800FD2A3FF650AF8B4240EBC25008BF20F022
:102A7800010070470CF0004C4CEA50207F32C2BF76
:102A8800D2F1FF0340EAC250704740F400004FF013
:102A98000003013A37E792F0000F00F0004C02BF44
:102AA800400010F4000F013AF9D040EA0C0093F00E
:102AB800000F01F0004C02BF490011F4000F013B68
:102AC800F9D041EA0C0195E70CEAD15392EA0C0FD0
:102AD80008D142027FF47DAF93EA0C0F7FF470AF08
:102AE800084676E793EA0C0F04D14B023FF44CAF4B
:102AF80008466EE730F0004C18BF31F0004CCAD1E0
:102B080030F000427FF45CAF31F000437FF43CAF1B
:102B18005FE700BF4FF0FF3C06E000BF4FF0010C3D
:102B280002E000BF4FF0010C4DF804CD4FEA40021F
:102B38004FEA41037FEA226C18BF7FEA236C11D069
:102B480001B052EA530C18BF90EA010F58BFB2EB1C
:102B5800030088BFC81738BF6FEAE17018BF40F09C
:102B6800010070477FEA226C02D15FEA402C05D150
:102B78007FEA236CE4D15FEA412CE1D05DF8040BD5
:102B8800704700BF844608466146FFE70FB5FFF768
:102B9800C9FF002848BF10F1000F0FBD4DF808ED20
:102BA800FFF7F4FF0CBF012000205DF808FB00BF11
:102BB8004DF808EDFFF7EAFF34BF012000205DF86B
:102BC80008FB00BF4DF808EDFFF7E0FF94BF0120B8
:102BD80000205DF808FB00BF4DF808EDFFF7D2FFB5
:102BE80094BF012000205DF808FB00BF4DF808EDF8
:102BF800FFF7C8FF34BF012000205DF808FB00BFC5
:102C080042000ED2B2F1FE4F0BD34FF09E03B3EB4E
:102C1800126209D44FEA002343F0004323FA02F07A
:102C280070474FF00000704712F1610F01D1420266
:102C380002D14FF0FF3070474FF00000704700BFDF
:102C480053B94AB9002908BF00281CBF4FF0FF310B
:102C58004FF0FF3000F06CB9ADF1080C6DE904CE0F
:102C680000F006F8DDF804E0DDE9022304B070475F
:102C78002DE9F047089E0D4604468E46002B40F08D
:102C880082808A42174646D9B2FA82F24AB1C2F124
:102C9800200105FA02F320FA01F1974041EA030EF8
:102CA80094404FEA1748230CBEFBF8FCB9B208FB66
:102CB8001CEE43EA0E430CFB01F098420AD9FB18BC
:102CC8000CF1FF3580F01681984240F21381ACF187
:102CD800020C3B441B1AA4B2B3FBF8F008FB1033F8
:102CE80044EA034400FB01F1A14209D93C1900F16F
:102CF800FF3380F00181A14240F2FE8002383C445B
:102D0800641A40EA0C4000211EB1D4400023C6E9F1
:102D18000043BDE8F08702B9FFDEB2FA82F2002A6A
:102D28004FD1CB1B4FEA174E1FFA87F80121B3FB8F
:102D3800FEFC250C0EFB1C3345EA034508FB0CF38F
:102D4800AB4207D97D190CF1FF3002D2AB4200F239
:102D5800E7808446ED1AA3B2B5FBFEF00EFB1055D2
:102D680043EA054408FB00F8A04507D93C1900F1DF
:102D7800FF3302D2A04500F2D7801846A4EB08041E
:102D880040EA0C40C0E78B4208D9002E00F0AF8023
:102D98000021C6E900050846BDE8F087B3FA83F1CB
:102DA80000294BD1AB4202D3824200F2B780841A89
:102DB80065EB030301209E46002EAAD0C6E9004E0B
:102DC800A7E7C2F1200C01FA02F3974020FA0CF0B1
:102DD8004FEA174E21FA0CFC1843BCFBFEF1050C18
:102DE8000EFB11CC1FFA87F845EA0C4501FB08F3E6
:102DF800AB4204FA02F409D97D1901F1FF3C80F0D5
:102E08008B80AB4240F2888002393D44EB1A85B290
:102E1800B3FBFEF00EFB103345EA034500FB08F355
:102E2800AB4207D97D1900F1FF3C71D2AB426FD993
:102E380002383D44EB1A40EA014178E7C1F1200C21
:102E48008B4022FA0CF71F4320FA0CF405FA01F321
:102E58004FEA174E25FA0CF51C43230CB5FBFEF977
:102E68001FFA87F80EFB195543EA054509FB08FACE
:102E7800AA4502FA01F200FA01F308D97D1909F10D
:102E8800FF3047D2AA4545D9A9F102093D44A5EB2F
:102E98000A05A4B2B5FBFEF00EFB105544EA054442
:102EA80000FB08F8A04507D93C1900F1FF352DD2E1
:102EB800A0452BD902383C4440EA0940A4EB080459
:102EC800A0FB02894C45C6464D4619D316D05EB1C3
:102ED800B3EB0E0264EB050404FA0CFCCA404CEA9E
:102EE8000202CC40C6E900240021BDE8F087314643
:102EF80030460EE7AC46EDE6184601E74345E6D214
:102F0800B8EB020E69EB07050138E0E72846D3E77E
:102F180060468FE78146BAE7614677E708464BE7A0
:102F2800ACF1020C3D4415E702383C4426E700BFEB
:102F3800704700BF08B51348134B03604FF00043B8
:102F4800436000238360C360036104224261037607
:102F5800437683760122C26180F82030436283621F
:102F680080F82C304FF48052026307224263826358
:102F780080F83C30C36401F005F900B908BD00F0E1
:102F8800FEF8FBE720180020002401400268094BE6
:102F98009A4200D0704782B04FF0B0431A6E42F4A4
:102FA80000721A661B6E03F400730193019B02B052
:102FB800704700BF002401400268054B9A4200D0C8
:102FC80070474FF0B042136E23F400731366F7E7AF
:102FD8000024014030B585B00446002301930293D4
:102FE8000393FFF7A7FF164801F0FEFCF8B9019418
:102FF80000230293039301A9114801F05BFAC8B9B1
:103008000F4801F001FCC0B90D4C4FF0FF312046CC
:1030180001F0EEF9204601F0C7FC204601F047FA1E
:103028000546204601F06CFC284605B030BD00F08E
:10303800A6F8DCE700F0A3F8E2E700F0A0F8E3E781
:1030480020180020014B024A1A60704720180020FF
:103058000024014008B50D48FFF7BCFF98B10346AE
:103068000B4A12884FF6FF718A4207D040F6E440B7
:1030780000FB02F0B0FBF3F080B205E00548B0FBBE
:10308800F3F080B200E0002008BD00BF002000B4CB
:10309800AA75FF1FD8084C0030B583B0FFF7DAFFD8
:1030A80005461F48FFF796FF1E4B1B881E4A1288CD
:1030B80093421AD000FB05F080081C4CA4FB0014B6
:1030C800C2EB5410642404FB00F49B1A94FBF3F441
:1030D8001E3424B20094164B0122002110460FF032
:1030E800EBFE200200B203B030BD00FB05F0114B2F
:1030F800A3FB0023C01A03EB5000C00A4FF47A73F5
:1031080003FB00F3A3F53923A3F50C630A4880FBFE
:103118000320DC17C4EBA0241E3424B2DAE700BF76
:10312800001000B0C875FF1FA875FF1F9F00EE09AB
:10313800183C010801011000AD8BDB6800B583B0B5
:103148004FF0B0439A6C42F004029A649A6C02F011
:1031580004020192019A9A6C42F001029A649B6CF3
:1031680003F001030093009B002202210F2001F0CD
:103178009DFC0F2001F0CEFC03B05DF804FB72B695
:10318800FEE710B59AB04822002108A810F058FCB4
:1031980000240194029403940494059406940794DB
:1031A80002F08AF84FF0B042D2F8903023F01803BA
:1031B800C2F8903002F58062136823F4C06343F4C8
:1031C80080631360136803F4C0630093009B0623B5
:1031D800089381230B934FF480730C9340230D9332
:1031E800139408A802F000FA70B94F230193012341
:1031F80002930021039104910591079101A802F01F
:103208002FFD18B91AB010BDFFF7B9FFFFF7B7FFC8
:1032180008B500F04FFFFFF7B4FF00F085FC00F0A1
:1032280089FCFCE700B58DB02C22002101A810F024
:1032380007FC1948194B03601F23836000230361AF
:10324800436183614FF08042C26103624FF480732F
:10325800436203F061F8A8B90F4803F097F9A0B9E1
:1032680000220892029206924FF0005307934FF4FF
:1032780080730B9301A9084803F0ACF840B90DB06E
:103288005DF804FBFFF77BFFE6E7FFF778FFE7E76A
:10329800FFF775FFF3E700BF8418002000280040FF
:1032A80010B590B004463822002102A810F0C8FBDF
:1032B80022681A4B9A4201D010B010BD4FF48033E7
:1032C80002934FF480730F9302A802F01DFE08BB0F
:1032D8004FF0B043D3F8902042F40042C3F8902056
:1032E8009A6D42F480629A659B6D03F48063019342
:1032F800019B00221146022001F0D8FB022001F0B8
:1033080009FC002211462A2001F0D0FB2A2001F0F6
:1033180001FCD1E7FFF733FFDAE700BF00280040E0
:103328007047704708B500F0DBFE0120024BC3F878
:10333800880002F025F808BD0004005808B500F020
:10334800D7FE08BD08B500F0D3FE00F0C3FB08BDEA
:1033580008B500F0C5FE0121002001F0B5FF08BD49
:103368007047FEE7FEE7FEE7FEE7FEE770477047B7
:103378007047704708B5024803F034F908BD00BF2C
:103388008418002008B5012001F088FF08BD08B5A1
:10339800022001F083FF08BD08B5024801F0D0FD06
:1033A80008BD00BF5819002008B5024803F0DAFD2F
:1033B80008BD00BFC818002008B5024802F026FF63
:1033C80008BD00BF8418002008B5024803F0B8FB08
:1033D80008BD00BFBC18002008B5054808230360D5
:1033E80003F036F900B908BDFFF7C9FEFBE700BFD7
:1033F800BC18002000B583B04FF0B0435A6E42F0BD
:1034080001025A665B6E03F001030193019B0022DF
:103418001146322001F04AFB322001F07BFB03B059
:103428005DF804FB0CB400B583B004AB53F8042B6F
:10343800019310F01BFA03B05DF804EB02B070477B
:1034480030B585B004460D4602A80FF085FFBDF9DA
:103458000C300093029B054A10212046FFF7E2FF3B
:103468002046FEF785FE288005B030BD3C3C0108AB
:1034780008B54FF0B042936843F4004393600FF0EF
:10348800EBFF00F0C7F800F0CBF80FF0A1FC0A48FA
:103498000FF0B8FC02200FF0BBFCFFF7D3FD00F0E3
:1034A800DFF80FF0C3FD012108460FF0DFFD012111
:1034B80008460FF0C5FD08BD4934000808B50FF0EF
:1034C800EBFD08BD10B582B0FFF7C4FD40F6B83378
:1034D80098420DD8B0F5E16F15D3A0F5E160C0EBC7
:1034E800C01044000948A0FB0434C4F3C71400E02A
:1034F800FE240094064B0122002102200FF0DCFC80
:10350800204602B010BD0024F3E700BFB5814E1B72
:10351800483C010808B5FFF7BFFD0346002802DB59
:10352800C3F30F2008BD00F1FF03F9E738B50446DF
:10353800164B1B68B3F1FF3F11D0C3711A0A827191
:103548001A0C42711B0E0371114B1A68C2701B686A
:103558001A0A82701A0C42701B0E037038BD00F0F4
:10356800CFFD054600F0D8FD054400F0CFFD2B0E39
:10357800E3712B0CA3712B0A63712571030EE370A1
:10358800030CA370030A63702070E7E78075FF1FC0
:103598008475FF1F084B1868B0F1FF3F00D07047D3
:1035A80010B500F0ADFD044600F0B0FD444000F059
:1035B800B3FD604010BD00BF8075FF1F08B5012135
:1035C80002200FF03DFD08BD08B5002102200FF0D4
:1035D80037FD08BD0020704708B500F05FF808BD4A
:1035E80000B583B00190019800F036F903B05DF89A
:1035F80004FB08B5012806D000F09CFD00F0AAFDE8
:1036080000F0B8FD08BD00F08DFD00F09BFD00F056
:10361800A9FDF7E708B50020FFF7EBFF08BD00009C
:10362800034AD2F8903043F48043C2F89030704790
:1036380000080058054B8360054B4360054B036049
:10364800054BC360054B03610020704700004842EA
:103658000000904100007A440D093E00AB030500CC
:1036680000207047024B9868C043024B18607047AF
:1036780000280040F8000020014B1868704700BF80
:10368800F8000020034B9B68DB43034A1068181AB4
:10369800704700BF00280040F8000020044B1B784A
:1036A8001BB1044B9868C04370470020704700BFA7
:1036B800F4000020002800400320704708B50146A8
:1036C8004FF47A7200238002890DFFF7B9FA08BD1A
:1036D80010B44201C30E121A63F10003990041EAC3
:1036E80092719400221841F10003D80040EA527008
:1036F800D1008A0A42EA805010BC704710B5074BC7
:103708000122DA65064C4FF48071204602F03EFD36
:103718004FF0FF332363002010BD00BF0028004096
:103728008418002008B502460221024802F06FFF03
:1037380008BD00BF8418002038B50F4B1B780BB1AB
:10374800002038BD0D4C4FF0FF352563FFF76AFDAB
:10375800FFF7D4FF4FF48071204602F017FD256370
:10376800204602F0F3FE0020FFF7DCFFFFF77AFFA8
:10377800014B01221A70E3E7F400002084180020AE
:1037880008B502460021024802F041FF08BD00BF0B
:103798008418002008B502460121024802F037FFCC
:1037A80008BD00BF8418002010B58CB004462C2238
:1037B800002101A810F044F9FFF7A0FF0C4B18688E
:1037C800044400230893E443029406934FF0005303
:1037D80007934FF480730B93012201A9054802F067
:1037E800F9FD10B900200CB010BDFFF7C8FCF9E7CF
:1037F800F80000208418002008B50221014802F0D2
:103808000DFF08BD8418002038B50546094B9C6893
:10381800E443FFF7F1FF0022121940F10003940A74
:1038280044EA8354C2F30900FFF752FF2880204678
:1038380038BD00BF0028004008B50021014802F04B
:10384800EDFE08BD8418002008B50121014802F0EA
:10385800E5FE08BD8418002008B5FFF72FFF064BCA
:103868009A68D243044B9B68DB439B1A834201D27C
:1038780000BFF7E708BD00BF0028004008B50FF0FB
:1038880017FF08BD08B5FFF7B7FF0130FFF74AFF7C
:1038980008BD000008B51948194B03604FF41653CA
:1038A800436000238360C36003610C22426183612B
:1038B8004FF400620262436283624FF00053436632
:1038C80004F0B1F970B900210C4804F05EFB60B94E
:1038D80000210A4804F07EFB50B9084804F031FB87
:1038E80048B908BDFFF74BFCEDE7FFF748FCEFE7E9
:1038F800FFF745FCF1E7FFF742FCF2E7C8180020A4
:103908000080004030B597B0044600211191129113
:10391800139114911591382203A810F091F8226898
:103928002A4B9A4201D017B030BD202303934FF49D
:103938000063079303A802F0E7FA00283FD14FF08D
:10394800B043DA6D42F00102DA65DA6D02F0010285
:103958000292029ADA6C42F00102DA64DB6C03F03C
:1039680001030193019B0C23119302231293002559
:103978001395032314930823159311A94FF090402E
:1039880001F052FB1248134B0360162343601023C7
:103998008360C5608023036145618561C5610562F7
:1039A80001F040F970B90A4BA3679C62002202211A
:1039B800262001F07BF8262001F0ACF8B3E7FFF7EA
:1039C800DEFBBCE7FFF7DBFBEDE700BF0080004054
:1039D800581900205800024002680C4B9A4200D047
:1039E800704710B504464FF0B042D36D23F0010381
:1039F800D3650C214FF0904001F0CEFBA06F01F091
:103A080083F9262001F094F810BD00BF0080004023
:103A180008B5074B1860FFF791FBFFF73BFF054A16
:103A2800D2F8803043F08053C2F88030002008BDBF
:103A3800000100200008005808B54FF0B043DA6BC9
:103A480042F00102DA63DA6B22F00102DA63044819
:103A5800FFF7C2FF0F2001F06BF8002008BD00BF80
:103A6800C818002008B50A460146024803F0A6F91E
:103A7800002008BDC818002010B582B0124B18608D
:103A88004FF40013009302AB13E906000F4804F04B
:103A980000FA0E4B1B68DA6912F4803FF9D1DA6933
:103AA80012F4800FFBD09A6842F480029A60074CA7
:103AB800204604F02FFA01220549204604F07AF93D
:103AC800002002B010BD00BFFC000020C818002074
:103AD800B819002008B5044801F0A4F800B908BDD9
:103AE800FFF74DFBFBE700BF5819002008B5024B54
:103AF8001B680020984708BD0001002010B5044647
:103B0800074B1B682BB1D0F88C2012B9012105484E
:103B1800984701220349204604F04CF910BD00BF24
:103B2800FC000020B819002008B5FFF7A1FC00F040
:103B380075F908BD08B54FF0FF300FF019FB08BD47
:103B4800704770477047000000283CD010B584B01B
:103B5800044603780BB904B010BD1B480FF048FDAC
:103B68001A4B0022114602200FF0A6F9237B94F984
:103B7800042094F91410039102920193A36800930E
:103B8800134B0022114603200FF096F9114B002227
:103B9800114603200FF090F9A378012B0CD1E3789C
:103BA80043B10D4B00930D4B0022114603200FF03B
:103BB80083F9D0E70A4BF5E70A4B002211460320A8
:103BC8000FF07AF9C7E7704728020020B03C0108D7
:103BD800E43C0108183D0108AC3C0108283D0108F7
:103BE800A43C01083C3D010808B5002102200FF063
:103BF80089FA02480FF0FCFC08BD00BF4002002013
:103C080008B5002101200FF07DFA08BD70B586B017
:103C18000C46054630B320480FF0EAFC1F4B002243
:103C2800114602200FF048F994F90C202B7894F9EA
:103C3800021094F9030094F9046005960490039126
:103C48000293174B53F822300193A3680093154B46
:103C58000022114603200FF02FF92B78032B04D0F4
:103C680006B070BD0029D6D1FAE76B78012BF7D1E1
:103C78006B681B78012B07D0022B09D0002BEFD1E2
:103C8800002004F08DFBEBE7012004F089FBE7E757
:103C9800022004F085FBE3E7100200204C3D0108F8
:103CA800083F0108803D010828B310B5044690F983
:103CB8000130CBB910480FF039FC104B00221146E7
:103CC80002200FF0F9F8A378012B06D00C4B002244
:103CD800114602200FF0F0F80CE00A4B00221146C2
:103CE80002200FF0E9F805E0074B002211460220F8
:103CF8000FF0E2F810BD7047F8010020C83D010838
:103D0800003E0108E03D0108203E0108F0B58BB0F7
:103D18000027039704A8FFF78DFCFFF7BDF940F3D0
:103D28000F2637490498FEF7A5FD3649FEF756FEDB
:103D3800FEF766FF85B2344C02232370314906989A
:103D4800FEF798FDFEF75CFF63681F7063682A0A38
:103D58005A7063689D706368DE706368C0F30722F9
:103D68001A7163685871294B1B78082B02D0012BF4
:103D780000D0ABB9244A516800238B715168CB71CC
:103D88005268137253720A231F484370002303AA10
:103D9800194604F0A5FBF8B1039B23BB0BB0F0BD9B
:103DA800079D089C184E7768FFF78CFBB8717368FD
:103DB800C5F30742DA717368C5F307221A725D7298
:103DC800C4F307429A72C4F30722DA721C73002202
:103DD8005A739A730F23D7E70D4B0122002110461F
:103DE8000FF06AF8DAE70B4AA2FB03239B0900935A
:103DF800094B0122002110460FF05EF8CEE700BF04
:103E08000000C84200002041000000203C000020C3
:103E18003C3E0108D34D62104C3E01082DE9F043A9
:103E280085B000240294012501950095384B22465F
:103E3800214602200FF040F8029403230193022642
:103E48000096344B2246214630460FF035F802944E
:103E580001950095304B2246214630460FF02CF84C
:103E6800DFF8E09000942D4B22464FF0FF31484692
:103E78000FF0FEFADFF8D0800094294B22464FF06D
:103E8800FF3140460FF0F4FA264F0094264B2A469D
:103E98004FF0FF3138460FF0EBFA4FF4FA7148460D
:103EA8000FF0ECFB4FF4FA7140460FF0E7FB4FF4CC
:103EB800FA7138460FF0E2FB1C4A214628460FF0FB
:103EC800DFF91B4A214630460FF0DAF900F03EF8D8
:103ED800184804F0D9FC184804F058F938460FF08F
:103EE80087FB304604F0B0FA144D0094144B224678
:103EF8004FF0FF3128460FF0BBFA42F21071284606
:103F08000FF0BCFB28460FF073FB05B0BDE8F0834B
:103F18006C3E01088C3E0108AC3E0108493B000894
:103F28004B3B0008F80100204D3B00087583000852
:103F3800153D0008080000203C0000204002002039
:103F4800F13B00082802002010020020044B002248
:103F58009A60DA604FF4B0725A6003221A607047B0
:103F6800580200200048704758020020F0B589B078
:103F7800002407944FF0B043DA6C42F00402DA648C
:103F8800DA6C02F004020292029ADA6C42F004023D
:103F9800DA64DB6C03F004030193019B102603969B
:103FA800012304930594032306930C4D03A9284683
:103FB80001F03AF82027039703A9284601F034F8BE
:103FC80022463946284601F063F9224631462846FA
:103FD80001F05EF9204609B0F0BD00BF00080048B6
:103FE80010B503280ED8DFE800F0020F1B27184C85
:103FF80000221021204601F04BF900222021204602
:1040080001F046F9002010BD114C01221021204674
:1040180001F03EF900222021204601F039F9F1E7AC
:104028000B4C01221021204601F032F901222021F7
:10403800204601F02DF9E5E7054C01221021204624
:1040480001F026F901222021204601F021F9D9E7C3
:104058000008004801207047012070470120704780
:104068000D48854600F025F80C480D490D4A0023F7
:1040780002E0D458C4500433C4188C42F9D30A4A15
:104088000A4C002301E013600432A242FBD30FF074
:10409800B3FCFFF7BDF8FEE7008000200000002019
:1040A800D800002020480108D8000020581A002015
:1040B800FEE7704710B5032000F0E6FC01F084FA33
:1040C800064B18600F20FFF785FA10B1012420462F
:1040D80010BD0446FFF744F9F9E700BF4C00002083
:1040E800024A136823F002031360704710E000E0EF
:1040F800024A136843F002031360704710E000E0BF
:10410800014B1868704700BF9075FF1F014B186876
:10411800704700BF9475FF1F014B1868704700BFB8
:104128009875FF1F024A536843F0010353607047B4
:10413800002004E0024A536823F0010353607047EB
:10414800002004E0024A536843F0020353607047BA
:10415800002004E0024A536823F0020353607047CA
:10416800002004E0024A536843F004035360704798
:10417800002004E0024A536823F0040353607047A8
:10418800002004E0F0B583B000230193002800F07C
:1041980021810446836DBBB12268936813F0805F68
:1041A8001FD1936823F0104323F0170343F0805383
:1041B8009360894B1B689B09884AA2FB03239B09D0
:1041C80001335B00019309E0FEF7E0FE0023E3659D
:1041D80084F85430E0E7019B013B0193019B002BDD
:1041E800F9D12268936813F0805F09D1A36D43F079
:1041F8001003A365E36D43F00103E365012000E0CC
:104208000020936813F0040300D00123A16D11F07E
:10421800100F40F0D880002B40F0D580A16D21F41C
:10422800817141F00201A165916811F0010F31D14E
:10423800D16821F01801A5682943D160626802F0AD
:104248004042E56C154394F83C10012918D02168C8
:104258000E69634A32402A430A616268B2F1404FEC
:1042680019D0B2F1804F16D0B2F1004F13D05D4E85
:10427800316821F4701102F470120A4332600AE0C6
:10428800216C0A43616C0A43A16C0A43154345F04B
:104298000105DCE71D46217E627ED20342EA8132B7
:1042A800A67E42EA4632216B09B14FF480510A4397
:1042B800E1680A432169002947DB4FF400110A43EA
:1042C80094F82C1042EA410294F8201001293FD0BA
:1042D800616A21B101F4E071A66A31430A43266894
:1042E800F16821F4FE3121F4F3711143F16026687D
:1042F80037693D4939400D4335612668616B7569F9
:1043080025F00705294371612568A66B696921F0C5
:10431800700141EA06116961216931BB21688B6A24
:1043280063F00F038B622368D968304B0B409342CC
:1043380040D0A36D23F0120343F01003A365E36D8F
:1043480043F00103E365012042E021F00041B6E7B4
:1043580016B942F48032BBE7A16D41F02001A16596
:10436800E16D41F00101E165B2E7B1F5001FDAD175
:10437800072B08D8216E9D00E94001F00F010F2995
:1043880001D00133F4E7012B0ED02568AB6AE3694D
:10439800013B9B0003F01C036FF00F0101FA03F3CC
:1043A800216E0B43AB62BEE721688B6A63F00F0393
:1043B8008B62B8E70023E365A36D23F0030343F0A2
:1043C8000103A36504E0A36D43F01003A365012076
:1043D80003B0F0BD0120FBE74C000020632D3E0533
:1043E80002FCFF1F0827014002FCFFDFE7FF3F83B5
:1043F800F8B504460D464669082E05D00368DB6803
:1044080013F0010F1ED10426FFF7E6F807462368CC
:104418001A6832421CD1B5F1FF3FF8D0FFF7DCF83B
:10442800C31BAB4201D8002DF1D123681B6833426E
:10443800EDD1A36D43F00403A365002384F8543041
:10444800032028E0836D43F020038365012022E0E8
:10445800A26D42F40072A265DA6812F4406F15D1B9
:10446800A27E9AB91A6812F0080F0FD09A6812F053
:10447800040F11D15A6822F00C025A60A36D23F47C
:10448800807323F0010343F00103A365207E60B924
:1044980023680C221A60F8BDA36D43F02003A365BE
:1044A800E36D43F00103E365F0E70020F3E70368F9
:1044B800186C704770B483B000220192046990F8B8
:1044C8005420012A00F0EE800346012280F854208F
:1044D8000268906810F0040F0AD09A6D42F020022A
:1044E8009A650120002283F8542003B070BC7047FD
:1044F8004868022800F09780B4F1004F29D06A4D2F
:10450800AC4226D01C6E00F01F000F25854024EA1F
:1045180005050C68C4F31106002E33D1C4F3846476
:1045280004FA00F0284318664C68A0080130DD69D9
:10453800A84214D80D68906A04F01F040F26A640FC
:1045480020EA0600C5F3836505FA04F4044394627F
:1045580005E00C68906AC4F31104204390621D685A
:104568000E6888686C6924EA062400EA062222F0AC
:104578007C4222F0FF0222436A610A68002A09DBB2
:104588000020AFE794FAA4F414B1B4FA84F4C7E7AE
:104598002024C5E74549086800F0E071444CA24270
:1045A80007D0444CA24224D0434CA2422ED0002033
:1045B80098E710F4000FF4D141F400013B48026879
:1045C80022F0E072114301603C4A126892093C49AA
:1045D800A1FB02129209013202EB420292000192FF
:1045E80002E0019A013A0192019A002AF9D10020C9
:1045F80078E710F0807FD7D141F080712B480268AE
:1046080022F0E0721143016000206BE710F4800F84
:1046180046D141F480022548016821F0E0710A433F
:10462800026000205EE7B4F1004F02D01E488442C9
:1046380006D10C68906AC4F3110420EA0400906261
:104648000A68002A01DB00204CE718490968184865
:10465800824207D0174882420ED01748824215D0AE
:1046680000203FE701F0A0711048026822F0E072D4
:1046780011430160002035E701F440020B4801684E
:1046880021F0E0710A43026000202BE701F0C072BC
:104698000648016821F0E0710A430260002021E722
:1046A80000201FE7022020E70400008008270140BF
:1046B800001000B0004000B8002000B44C000020FA
:1046C800632D3E0538B503689A6812F0040F2AD0A6
:1046D80004469A6812F0020F07D19A6822F0004245
:1046E80022F0170242F010029A60FEF775FF0546A5
:1046F80023689B6813F0040F13D0FEF76DFF431B6C
:10470800022BF5D923689B6813F0040FF0D0A36D32
:1047180043F01003A365E36D43F00103E365012053
:1047280002E0002000E0002038BD000030B583B072
:104738000023019303689A6812F0010F59D10446C7
:1047480099682D4A11421BD19A6822F0004222F042
:10475800170242F001029A60284B1B6813F4000FFD
:1047680018D0274B1B689B09264AA2FB03239B09E9
:1047780001330193019B6BB1019B013B0193F9E765
:10478800836D43F010038365C36D43F00103C36574
:1047980001202FE0637E012B01D100202AE0FEF7E3
:1047A8001BFF054623681A6812F0010F1FD19A688B
:1047B80012F0010F07D19A6822F0004222F0170286
:1047C80042F001029A60FEF707FF401B0228E9D970
:1047D80023681B6813F0010FE4D1A36D43F01003A5
:1047E800A365E36D43F00103E365012002E00020C7
:1047F80000E0002003B030BD17000080082701400A
:104808004C000020632D3E0503689B6813F0040FDD
:1048180028D110B5044690F85430012B24D0012338
:1048280080F85430FFF782FFC0B9A36D23F470639A
:1048380023F0010343F48073A3650023E365226832
:104848001C21116084F854302268936823F00043D7
:1048580023F0170343F00403936010BD002384F88A
:104868005430FAE7022070470220F6E738B50446CC
:104878000268936813F0020300D00123916811F0D5
:10488800010F39D0002B39D1936803F00503012BB0
:1048980009D0A36D43F01003A365E36D43F0010352
:1048A800E365012029E0936823F0004323F0170310
:1048B80043F002039360236803221A60FEF78CFE1C
:1048C800054623689B6813F0010F13D0FEF784FE9A
:1048D800401B0228F5D923689B6813F0010FF0D01C
:1048E800A36D43F01003A365E36D43F00103E36593
:1048F800012002E0002000E0002038BD0020FCE795
:1049080070B500284AD00446836D43F002038365DE
:10491800FFF7D8FE0646002831D02268536823F4F2
:10492800677323F003035360236840F29F321A60D1
:104938002268D1681A4B0B40D3602268136923F0B0
:10494800404313612268536923F0070353612268C7
:10495800136A03F0F023136223689A6A00259D62A4
:10496800104A136823F0FE7313602046FEF724FBF9
:104978002566E565A56584F85450304670BD204627
:10498800FFF774FF064608B90123A36522689368F8
:1049980023F0104323F017039360BEE70126ECE7EA
:1049A80000023E830827014090F85430012B19D0AB
:1049B80010B50446012380F85430FFF783FE18B180
:1049C800002384F8543010BD2046FFF74FFF00281D
:1049D800F6D1A36D23F4807323F0010343F00103A0
:1049E800A365EDE70220704730B583B0002301933B
:1049F80090F85430012B45D00446012380F85430F8
:104A0800FFF734FF23689A6812F0010F08D0A36DEE
:104A180043F01003A365002384F8543003B030BD7D
:104A2800A26D22F4817242F00202A265DD6805F0EF
:104A38000305DA6822F00302DA6021688B6843F024
:104A480000438B6023689968002909DBDA682A43E8
:104A5800DA60A36D23F0030343F00103A365DAE7EB
:104A6800019B01330193019BB3F52E3FEAD3A36D5C
:104A780023F0120343F01003A365002384F8543095
:104A88000120CBE70220C9E7074AD36823F4E06393
:104A98001B041B0C000200F4E060034343F0BF63F7
:104AA80043F40033D360704700ED00E030B4174B97
:104AB800DB68C3F30223C3F10704042C28BF0424D2
:104AC8001D1D062D18D9033B4FF0FF3505FA04F4D8
:104AD80021EA0401994005FA03F322EA0303194382
:104AE80000280BDB0901C9B200F1604000F5614004
:104AF80080F8001330BC70470023E5E700F00F0092
:104B08000901C9B2024B1954F4E700BF00ED00E0F7
:104B180014ED00E0002807DB00F01F024009012324
:104B28009340024A42F82030704700BF00E100E09D
:104B380000280CDB00F01F024009012393402030BD
:104B4800034A42F82030BFF34F8FBFF36F8F70478F
:104B580000E100E070B4C46C056D6560446D14B18B
:104B6800846DC56D6560446C04F01C05066C0124F9
:104B7800AC407460046863608368102B05D00368D8
:104B880099600368DA6070BC704703689A600368CC
:104B9800D960F8E70368144A934216D8426C22F0A9
:104BA800030202F1804202F502328264DBB2083B62
:104BB8000E4AA2FB03231B090D4AC26403F01F031C
:104BC800012202FA03F303657047426C22F00301E5
:104BD800084A0A448264DBB2083B044AA2FB032366
:104BE8001B090733E8E700BF07040240CDCCCCCC53
:104BF800800802401C080240436803F07F03074A0C
:104C08001A4492004265064A8265013B03F0030399
:104C1800012202FA03F3C365704700BF3F82001008
:104C280040090240002860D010B504460268304BA5
:104C38009A4242D82F4B13442F49A1FB03131B0957
:104C48009B0043642D4B0364022384F825301368CA
:104C580023F4FF4323F07003136021680A68A368F4
:104C6800E06803432069034360690343A069034381
:104C7800E0690343206A034313430B602046FFF7B0
:104C880089FFA368B3F5804F22D06368A26C03F054
:104C98007F031360E36C226D5A606368013B032B4A
:104CA80019D900236365A365E3650020E063012348
:104CB80084F8253084F8240010BD114B13440E49A4
:104CC800A1FB03131B099B0043640E4B0364BBE762
:104CD80000236360D9E72046FFF78EFF636D00224B
:104CE8001A60A36DE26D5A60DFE70120704700BFCC
:104CF80007040240F8FFFDBFCDCCCCCC0000024039
:104D0800F8FBFDBF0004024000284BD038B504462C
:104D18000268136823F0010313600268224B9A4269
:104D28002CD8224B13442249A1FB03131B099B00D7
:104D38004364204B036400251560636C03F01C0278
:104D4800216C012393404B602046FFF723FFA36C9F
:104D58001D60E36C226D5A606368013B032B18D910
:104D680000206065A065E065E06220636063A06381
:104D7800E06384F8250084F8240038BD0E4B134402
:104D88000B49A1FB03131B099B0043640B4B0364F2
:104D9800D1E72046FFF730FF636D1D60A36DE26D1C
:104DA8005A60DDE70120704707040240F8FFFDBFA5
:104DB800CDCCCCCC00000240F8FBFDBF0004024083
:104DC80038B5044690F82400012843D0012084F81F
:104DD800240094F82500C0B2012806D08023E3639C
:104DE800002384F82430012038BD022084F82500EF
:104DF8000020E0632568286820F00100286020462C
:104E0800FFF7A8FE236BD3B12268136843F00E03A3
:104E18001360A36C1A6812F4803F03D01A6842F436
:104E280080721A60636D1BB11A6842F480721A604E
:104E38002268136843F0010313600020D4E7226856
:104E4800136823F0040313602268136843F00A030D
:104E58001360DEE70220C7E70346002834D090F845
:104E68002520D2B2022A06D00422C263002280F88A
:104E780024200120704701680A6822F00E020A60A7
:104E8800816C0A6822F480720A6001680A6822F05C
:104E980001020A60426C02F01C01006C01228A4087
:104EA8004260DA6C196D51605A6D32B1116821F4A3
:104EB800807111609A6DD96D5160012283F82520A7
:104EC800002083F8240070470120704708B590F847
:104ED8002530DBB2022B03D00423C363012008BDB5
:104EE8000268136823F00E0313600268136823F046
:104EF80001031360826C136823F480731360436C9E
:104F080003F01C02016C012393404B60C36C026DDB
:104F18005A60436D33B11A6822F480721A60836D47
:104F2800C26D5A60012380F82530002380F82430B0
:104F3800836B13B198470020D1E70020CFE700002A
:104F480038B5036C196804682568436C03F01C03C2
:104F580004229A400A4215D015F0040F12D0236893
:104F680013F0200F03D1236823F004032360436C5C
:104F780003F01C02016C042393404B60036B03B1E4
:104F8800984738BD02229A400A4228D015F0020FED
:104F980025D0236813F0200F06D1236823F00A03D5
:104FA8002360012380F8253002681C4B9A420ED9F1
:104FB800436C03F01C0202239340194A53600023F8
:104FC80080F82430C36A002BDBD09847D9E7436CBC
:104FD80003F01C0202239340124A5360EFE70822B1
:104FE80002FA03F30B42CCD015F0080FC9D023689E
:104FF80023F00E032360436C03F01C03016C0122B1
:1050080002FA03F34B60C26380F82520002380F87E
:105018002430436B002BB4D09847B2E7800002409D
:105028000004024000000240F0B400235FE08668FC
:105038005F000325BD4026EA0506CD68BD4035431F
:105048008560466826EA04064D68C5F300149C404E
:105058003443446059E0DD08083550F8257003F002
:105068000704A6000F24B44027EA04070C69B440DB
:105078003C4340F825405CE0022400E00024B440B2
:105088003C430235414E46F82540414CD4F8805007
:10509800D44325EA02064F6817F4803F01D042EA5C
:1050A80005063B4DC5F88060D5F8845004EA05062E
:1050B8004F6817F4003F01D042EA0506344DC5F8A1
:1050C80084602D6804EA05064F6817F4801F01D034
:1050D80042EA05062E4D2E606D682C404E6816F487
:1050E800001F01D042EA0504294A546001330A68C6
:1050F80032FA03F448D001249C402240F6D04D688F
:1051080005F00305013D012D91D94C6804F0030415
:10511800032C09D0C5685E000324B44025EA0405C1
:105128008C68B4402C43C4604C6804F00304022C1F
:1051380091D005685E000324B44025EA04054C6854
:1051480004F00304B4402C4304604C6814F4403F5A
:10515800CCD09D08AE1C0D4C54F8267003F0030407
:10516800A6000724B44027EA0407B0F1904F85D081
:10517800084CA04206D004F58064A0423FF47CAFFE
:1051880007247CE701247AE7F0BC7047000001405F
:105198000008005800040048002331FA03F26FD0D9
:1051A800F0B52DE0022700E0002707FA04F4B44226
:1051B80046D005685C00032606FA04F4254305601A
:1051C80023FA06F5083550F8256003F007074FEA7B
:1051D800870C0F2707FA0CF726EA070640F8256020
:1051E800856825EA04058560456825EA020242606B
:1051F800C26822EA0404C460013331FA03F23ED0E3
:1052080001229A4012EA010EF6D04FEA930C0CF1F3
:1052180002051C4C54F8256003F00304A40007257C
:10522800A5402E40B0F1904FBED0174FB84205D0E0
:1052380007F58067B842B5D00727B6E70127B4E776
:10524800124CD4F8806026EA0E06C4F88060D4F8C0
:10525800846026EA0E06C4F88460266826EA0E06EC
:105268002660666826EA0E066660064E0CF1020C99
:1052780056F82C4024EA050546F82C5099E7F0BD6D
:10528800704700BF000001400004004800080058B3
:105298000AB18161704781627047704708B5054B54
:1052A800DB68034200D108BD024BD860FFF7F5FF69
:1052B800F9E700BF00080058024A136843F48073F6
:1052C800136070470004005810B50C46A0B90F4B86
:1052D8005B6913F4007F0AD10D4A136923F00403B4
:1052E8001361012C10D040BF20BF20BF10BD00F0BB
:1052F80021F80028F0D0F9E7044B5B6913F4007F2C
:10530800EAD100F00FF8E7E730BFEFE700040058F4
:1053180000ED00E0024B186800F4C060704700BF61
:1053280000040058024A136843F48043136070472E
:10533800000400580F4A136823F4804313600E4B8F
:105348001A68322303FB02F30C4AA2FB03239B0CCB
:10535800084A526912F4007F02D00BB1013BF7E70B
:10536800044B5B6913F4007F01D1002070470320D0
:10537800704700BF000400584C00002083DE1B4328
:105388000C4A136823F0070343F0020313600A4A28
:10539800136943F004031361012808D040BF20BFFC
:1053A80020BF054A136923F004031361704730BF17
:1053B800F7E700BF0004005800ED00E070B588B0C2
:1053C80004460E46294B93E803000690ADF81C10DE
:1053D800D96898680490ADF8141001AD103393E8BB
:1053E800070085E80700B6F5007F1BD00023022BD5
:1053F80022D808AA02EB430232F8102CA24215D296
:105408000133F4E70133022B0ED808AA02EB43025A
:1054180032F8082CA242F5D308AA02EB830353F80A
:105428001C5C0AE00023EEE7002506E008AA02EB70
:10543800830353F81C5C00E000250D4A136823F031
:1054480007032B431360FEF7C7F80446084B1B6895
:1054580003F00703AB4206D0FEF7BEF8001B022894
:10546800F4D9032000E0002008B070BD703B0108AB
:105478000040005810B5C0F303100C4B53F82040FF
:105488004FF0B043D3F8083103F00F03084A52F83D
:105498002300B4FBF0F4FFF73DFF01460548A0FBED
:1054A8000430800CFFF78AFF10BD00BF803F010861
:1054B800203F010883DE1B434FF0B0439A68DB6846
:1054C80003F0030312F00C020AD00C2A06D0042AB7
:1054D80047D0082A3BD00021084626E0012BF6D108
:1054E8004FF0B0431B6813F008030DD04FF0B043E2
:1054F8001B6813F0080324D14FF0B041D1F8941081
:105508002E4951F823100EE04FF0B041096811F010
:10551800080F12D14FF0B043D3F89430C3F30323EC
:10552800264951F82310D2B100204FF0B0439B68B0
:1055380003F00C030C2B1AD070474FF0B0410968E8
:10554800EEE74FF0B0431B68C3F30313D8E74FF0FF
:10555800B043196811F4801106D11948E5E70846E7
:10556800E3E700211748E0E700211648DDE74FF0A0
:10557800B043DB6803F00303022B09D0032B08D1E7
:105588004FF0B0431B6813F4801F15D10C4900E09D
:105598000C494FF0B042D068C0F3062000FB01F080
:1055A800D368C3F302130133B0FBF3F0D3685B0F86
:1055B8000133B0FBF3F0BFE70249EAE7803F010897
:1055C8000048E8010024F40008B5FFF775FF4FF024
:1055D800B0439B68C3F30313024A52F82330B0FB6D
:1055E800F3F008BD203F0108002800F01883F8B543
:1055F80004464FF0B0439D6805F00C05DE6806F0E0
:105608000306036813F0200F00F08F80EDB10C2D16
:1056180019D0236A002B00F0BC804FF0B042136809
:1056280043F001031360FDF7D7FF07464FF0B0437F
:105638001B6813F0020F65D1FDF7CEFFC01B0228CF
:10564800F4D90320F8E2012EE3D14FF0B0431B68F0
:1056580013F0020F03D0236A002B00F0E282A06A45
:105668004FF0B0431B6813F0080F29D04FF0B04338
:105678001B6803F0F00398422AD9FFF7FBFE0028C5
:1056880040F0D1824FF0B0431A6842F008021A6025
:105698001A6822F0F002A16A0A431A60616A5A681D
:1056A80022F47F4242EA01225A60FFF78DFFBC4B89
:1056B8001860BC4B1868FDF78DFF002835D0BBE299
:1056C8004FF0B043D3F894301B0903F0F003D2E74E
:1056D8004FF0B0431A6842F008021A601A6822F0C4
:1056E800F002A16A0A431A60616A5A6822F47F428A
:1056F80042EA01225A60A06AFFF7BCFE0028D4D013
:10570800012099E24FF0B0431A6842F008021A608B
:105718001A6822F0F002A16A0A431A60616A5A689C
:1057280022F47F4242EA01225A60236813F0010FF3
:1057380051D0082D45D00C2D41D04FF0B042136800
:1057480023F48013A1680B4313606368B3F5803FAB
:1057580063D0B3F5041F65D04FF0B0431A6822F444
:1057680080321A601A6822F400121A606368002BEB
:1057780063D0FDF731FF07464FF0B0431B6813F4C1
:10578800003F28D1FDF728FFC01B6428F4D9032067
:1057980052E24FF0B042136823F001031360FDF7A3
:1057A8001BFF07464FF0B0431B6813F0020FBCD035
:1057B800FDF712FFC01B0228F4D903203CE2032E98
:1057C800BBD14FF0B0431B6813F4003F03D06368AC
:1057D800002B00F02A82236813F0020F52D0042D08
:1057E8003DD00C2D39D02369002B00F091804FF06B
:1057F800B042136843F480731360FDF7EDFE06466C
:105808004FF0B0431B6813F4806F77D1FDF7E4FEC7
:10581800801B0228F4D903200EE2136843F4803376
:105828001360A3E74FF0B0431A6842F400121A60FD
:105838001A6842F480321A6098E7FDF7CDFE0746F1
:105848004FF0B0431B6813F4003FC4D0FDF7C4FE0B
:10585800C01B6428F4D90320EEE1022EC3D14FF017
:10586800B0431B6813F4806F03D02369002B00F04A
:10587800DE8161694FF0B042536823F0FE4343EA8A
:1058880001635360236813F0080F00F08D80A3694B
:10589800002B6CD04FF0B043D3F89430E16903F09B
:1058A8001002914211D003F00302022A00F0C181D4
:1058B80013F0010F42D14FF0B042D2F8943023F0E8
:1058C8001003E1690B43C2F894304FF0B042D2F8AC
:1058D800943043F00103C2F89430FDF77DFE06468C
:1058E8004FF0B043D3F8943013F0020F5CD1FDF7BA
:1058F80073FE801B1128F3D903209DE161694FF0E5
:10590800B042536823F0FE4343EA01635360B9E7AA
:105918004FF0B042136823F480731360FDF75CFE08
:1059280006464FF0B0431B6813F4806FAAD0FDF70A
:1059380053FE801B0228F4D903207DE14FF0B042CA
:10594800D2F8943023F00103C2F89430FDF744FEF6
:1059580006464FF0B043D3F8943013F0020FAAD0A4
:10596800FDF73AFE801B1128F3D9032064E14FF0BC
:10597800B042D2F8943023F00103C2F89430FDF716
:105988002BFE06464FF0B043D3F8943013F0020FC5
:105998000AD0FDF721FE801B1128F3D903204BE123
:1059A8004C00002050000020236813F0040F00F082
:1059B800B180A94B1B6813F4807F10D1FFF77CFCE2
:1059C800FDF70AFE0646A44B1B6813F4807F06D138
:1059D800FDF702FE801B0228F5D903202CE1E368BD
:1059E800002B61D0852B01D0052B07D14FF0B04299
:1059F800D2F8903043F00403C2F89030FDF7ECFD84
:105A080006464FF0B042D2F8903043F00103C2F896
:105A180090304FF0B043D3F8903013F0020F08D114
:105A2800FDF7DAFD801B41F288339842F1D9032053
:105A380002E1E368812B01D0852B1AD1FDF7CCFD5B
:105A480006464FF0B042D2F8903043F08003C2F8D7
:105A580090304FF0B043D3F8903013F4006F59D121
:105A6800FDF7BAFD801B41F288339842F1D9032033
:105A7800E2E0FDF7B1FD06464FF0B042D2F89030B3
:105A880023F08003C2F890304FF0B043D3F8903041
:105A980013F4006F3ED0FDF79FFD801B41F2883361
:105AA8009842F1D90320C7E0FDF796FD06464FF06E
:105AB800B042D2F8903023F08003C2F890304FF013
:105AC800B043D3F8903013F4006F08D0FDF784FD8D
:105AD800801B41F288339842F1D90320ACE0FDF7EE
:105AE8007BFD06464FF0B042D2F8903023F0010318
:105AF800C2F890304FF0B043D3F8903013F0020F53
:105B080008D0FDF769FD801B41F288339842F1D92E
:105B1800032091E0E36A002B00F08D800C2D62D009
:105B2800022B1FD04FF0B0431A6822F080721A601F
:105B3800DA6822F00302DA60DA6822F0885222F486
:105B48008032DA60FDF748FD04464FF0B0431B6829
:105B580013F0007F73D0FDF73FFD001B0A28F4D92E
:105B6800032069E04FF0B042136823F0807313609C
:105B7800FDF732FD05464FF0B0431B6813F0007F78
:105B88002AD14FF0B042D36834491940236B606B77
:105B98000343A06B43EA0023E06B0343206C0343F9
:105BA800606C03430B43D360136843F08073136046
:105BB800D36843F08053D360FDF70EFD04464FF0E1
:105BC800B0431B6813F0007F37D1FDF705FD001BBC
:105BD8000A28F4D903202FE0FDF7FEFC401B0A2811
:105BE800C9D9032028E0012B2BD04FF0B043DB6844
:105BF80003F00301226B914225D103F07002616B1F
:105C08008A4222D103F4FE42A16BB2EB012F1ED1CE
:105C180003F06043626C93421BD100200CE001202A
:105C28007047012008E0012006E0012004E001207F
:105C380002E0012000E00020F8BD0020FCE7002081
:105C4800FAE70120F8E70120F6E70120F4E7012050
:105C5800F2E70120F0E700BF000400588C80C11172
:105C6800002800F0278170B50C460546934B1B6849
:105C780003F007038B422DD32B6813F0020F3FD19B
:105C88002B6813F0200F53D12B6813F0400F6AD103
:105C98002B6813F0040F40F083802B6813F0080F73
:105CA80040F097802B6813F0010F00F0DE806B68DE
:105CB800022B00F0A880032B00F0AD80002B40F0F1
:105CC800B2804FF0B042126812F0020F40F0B1807B
:105CD8000120EEE0794A136823F007030B431360B1
:105CE800FDF77AFC0646754B1B6803F00703A342D1
:105CF800C2D0FDF771FC801B0228F4D90320D8E03C
:105D0800AB684FF0B0418A6822F0F00213438B6011
:105D1800FDF762FC06464FF0B0439B6813F4803FE2
:105D2800AED1FDF759FC801B0228F4D90320C0E04E
:105D38006B694FF0B041D1F8082122F0F00213430B
:105D4800C1F80831FDF748FC06464FF0B043D3F8D8
:105D5800083113F4003F97D1FDF73EFC801B022861
:105D6800F3D90320A5E0A9694FF0B042D2F8083171
:105D780023F00F0343EA1113C2F80831FDF72CFC96
:105D880006464FF0B043D3F8083113F4803F7FF450
:105D98007FAFFDF721FC801B0228F2D9032088E0A1
:105DA800EB684FF0B0418A6822F4E06213438B60DD
:105DB800FDF712FC06464FF0B0439B6813F4003F12
:105DC8007FF46BAFFDF708FC801B0228F3D9032092
:105DD8006FE029694FF0B042936823F4605343EAB7
:105DE800C1039360FDF7F8FB06464FF0B0439B688C
:105DF80013F4802F7FF456AFFDF7EEFB801B0228CB
:105E0800F3D9032055E04FF0B042126812F4003F76
:105E18000FD101204DE04FF0B042126812F0007F20
:105E280007D1012045E04FF0B042126812F4806FAC
:105E380042D04FF0B0418A6822F0030213438B60CE
:105E4800FDF7CAFB06464FF0B0439B6803F00C030E
:105E58006A68B3EB820F08D0FDF7BEFB801B41F2E6
:105E680088339842EFD9032023E0144B1B6803F0D2
:105E78000703A34215D9114A136823F007032343E4
:105E88001360FDF7A9FB05460C4B1B6803F00703DD
:105E9800A34206D0FDF7A0FB401B0228F4D903203B
:105EA80007E0FFF791FB064B1860064B1868FDF7F3
:105EB80091FB70BD012070470120FAE700400058AF
:105EC8004C0000205000002008B5FFF77DFB4FF084
:105ED800B0439B68C3F30223024A52F82330D840E8
:105EE80008BD00BF603F010808B5FFF76DFB4FF024
:105EF800B0439B68C3F3C223024A52F82330D84008
:105F080008BD00BF603F010870B50446036813F47C
:105F1800803F40F0D6800025236813F0010F0AD097
:105F280062684FF0B041D1F8883023EA124392B248
:105F38001343C1F88830236813F0020F0AD0A2680F
:105F48004FF0B041D1F8883023EA124392B213439C
:105F5800C1F88830236813F0200F09D023694FF067
:105F6800B041D1F8882022F440621343C1F8883048
:105F7800236813F4007F0CD0206A4FF0B041D1F8A9
:105F88008830020C120423EA020343EA0043C1F8F2
:105F98008830236813F4806F0CD0606A4FF0B041EA
:105FA800D1F88830020C120423EA020343EA0043C2
:105FB800C1F88830236813F4006F0CD0A06A4FF042
:105FC800B041D1F88830020C120423EA020343EAF4
:105FD8000043C1F88830236813F0400F0FD063697D
:105FE8004FF0B040D0F88820190901F47F2122EA47
:105FF80001021B0103F47F231343C0F88830236890
:1060080013F0800F0FD0A3694FF0B040D0F888206C
:10601800190901F47F2122EA01021B0103F47F23FD
:106028001343C0F88830236813F4807F0FD0E369E6
:106038004FF0B040D0F88820190901F47F2122EAF6
:1060480001021B0103F47F231343C0F8883023683F
:1060580013F0100F0DD0E3684FF0B041D1F888204D
:1060680022F440721343C1F88830E368B3F5807FA7
:106078007FD0236813F4004F0FD0236B4FF0B0414B
:10608800D1F8882022F040421343C1F88830236BAE
:106098001BB9CB6843F08073CB60236813F4804F3F
:1060A8000DD0E36A4FF0B041D1F8882022F0405279
:1060B8001343C1F88830E36AB3F1005F5ED0284625
:1060C80070BDFFF7F9F8FDF787FA05462E4B1B68F8
:1060D80013F4807F06D1FDF77FFA401B0228F5D91B
:1060E800032500E00025002D7FF416AF4FF0B043E4
:1060F800D3F8903003F44073626B9A4224D04FF087
:10610800B043D3F8902022F44072D3F8901041F4B1
:106118008031C3F89010D3F8901021F48031C3F87F
:106128009010C3F8902012F0020F0FD1002D7FF4C9
:10613800F3AE636B4FF0B041D1F8902022F4407277
:106148001343C1F89030E7E60022ECE7FDF744FA84
:1061580006464FF0B043D3F8903013F0020FE5D164
:10616800FDF73AFA801B41F288339842F1D90325AA
:10617800DCE7CB6843F08073CB607AE7CB6843F405
:106188008033CB609BE700BF0004005890F82C30A8
:10619800012B36D0012380F82C30022380F82D30D3
:1061A800194BCA225A6253225A62B1F5807F19D01C
:1061B800154B9A6922F408529A61DA6C22F000426F
:1061C800DA64026B22F0020202630222DA650E4BE5
:1061D800FF225A62012380F82D30002380F82C30EA
:1061E800184670479A6922F488529A615A6C22F0CC
:1061F80000425A64026B22F0010202630122DA654E
:10620800E5E70220704700BF0028004038B5044683
:106218000D4B5D6D036B1D4015F0010F06D115F098
:10622800020F09D1012384F82D3038BD064B012215
:10623800DA65FDF723FBF2E7034B0222DA65204615
:1062480000F0E4F9EEE700BF0028004010B50B4A63
:10625800D36823F02003D360FDF7BEF90446074B4B
:10626800DB6813F0200F07D1FDF7B6F9001BB0F576
:106278007A7FF4D9032000E0002010BD00280040F8
:1062880070B5114BDB6813F0400F02D00024204694
:1062980070BD06460C4AD36843F08003D360FDF70F
:1062A8009BF905460024084BDB6813F0400FEED13C
:1062B800032CECD0FDF790F9431BB3F57A7FF2D9A4
:1062C800032486F82D40EEE70028004010B5044668
:1062D800104BDA6822F08002DA609B6913F0200F15
:1062E80006D1FFF7B3FF98B1032084F82D000FE023
:1062F800084A936923F020039361FFF7A7FF10B1C1
:10630800032084F82D00034A936943F02003936126
:1063180010BD00BF0028004000284AD038B5044608
:1063280090F82D309BB1022384F82D30224BCA22DD
:106338005A6253225A622046FFF7A2FF60B11E4BF1
:10634800FF225A6210B9012384F82D3038BD80F835
:106358002C30FCF7A5FFE6E7174B9A6922F08E620E
:1063680022F040029A619969626820690243A06933
:1063780002430A439A61E268A16842EA01421A614B
:10638800DA6822F4F852616AA06A01430A43DA60C3
:106398002046FFF79BFF0028D1D107498B6923F0DE
:1063A8006043226AE5692A4365692A4313438B617E
:1063B800C5E70120704700BF0028004000230928D6
:1063C80003D901330A38C0B2F9E71B01DBB218431D
:1063D8007047000090F82C30012B00F0B0802DE9B8
:1063E800F04105460C46012380F82C30022380F842
:1063F8002D30544BDE6806F44076B6F5807F43D0E6
:1064080012BB9B6913F0400F01D10023CB70D4F865
:1064180014802078FFF7D2FF07046078FFF7CEFFDB
:1064280047EA0027A078FFF7C9FF0743E07847EA63
:10643800805794F82400FFF7C1FF47EA0060276AF5
:10644800384348EA000020E04869B0F1803F09D0AD
:10645800B0F5000F06D03B4B9B6913F0400F01D1FC
:106468000023CB70227863781B0243EA0243A278A8
:106478001343E27843EA825394F8242043EA026300
:10648800226A1343184300E000202E4BCA225A62A6
:1064980053225A62A36AB3F5807F2AD0294B9A699E
:1064A80022F408529A610222DA65B6F5807F40D05C
:1064B800244B9864A269DA646268224B5A672A6B93
:1064C80042F002022A639A6942F408529A611E4A0B
:1064D800D2F8803043F40033C2F88030194BFF22E1
:1064E8005A62012385F82D30002085F82C00BDE87C
:1064F800F081144B9A6922F488529A610122DA6574
:10650800B6F5807F0FD00F4B1864A2695A64626891
:106518000C4B1A672A6B42F001022A639A6942F40B
:1065280088529A61D3E7A369E2691343054A536421
:10653800EDE7A369E2691343024AD364BCE702208A
:10654800704700BF002800400008005890F82C3021
:10655800012B17D0012180F82C10022380F82D3050
:10656800094BCA225A6253225A629A6942F020029F
:106578009A61FF225A6280F82D10002380F82C308F
:1065880018467047022070470028004090F82C30C9
:10659800012B20D010B4012180F82C10022380F8A0
:1065A8002D300E4BCA225A6253225A629A6942F01F
:1065B80080029A610A4CD4F8802042F48022C4F800
:1065C8008020FF225A6280F82D10002380F82C309A
:1065D800184610BC70470220704700BF00280040D2
:1065E8000008005810B50446074B5B6D13F0400FC8
:1065F80003D1012384F82D3010BD034B4022DA6506
:10660800FDF740F9F5E700BF002800407047890012
:1066180001F1804101F531410A607047890001F1BB
:10662800804101F53141086870470000074B1A683E
:1066380022F040021A6040F4417018604FF4B852DA
:106648005A601A6842F040021A6070470000015808
:1066580030B583B000284ED004468379002B3BD058
:106668000223A3714FF0B042D2F8943023F40043D0
:10667800C2F89430214B1B68C3EBC303C3F34C43EC
:10668800642202FB03F30193019B4BB3019B013B83
:1066980001934FF0B043D3F8943013F4804FF3D103
:1066A8000025174BD3F8902042F40042C3F89020FD
:1066B8001449D1F8902042F48052C1F890209A6889
:1066C80042F400629A604FF400629A615DB101235E
:1066D800A371284603B030BD4371FCF78BFEBFE7BA
:1066E8000125A560DDE72068FFF7A0FF01232371DE
:1066F8000023A360EBE70125EBE700BF4C00002077
:10670800000400580008005882B002461A4B1B6863
:10671800C3EBC303C3F34C43642000FB03F30193AF
:10672800019B4BB1019B013B0193144B9B6813F0F8
:10673800020FF5D0002001E001209060104B197085
:106748000D4B1B68C3EBC303C3F34C43642101FB2C
:1067580003F30193019B43B1019B013B0193074B59
:106768009B6813F0010FF5D001E001209060034B06
:10677800DB6802B0704700BF4C00002000000158E1
:106788000C00015810B483B002461C4B1B68C3EBC5
:10679800C303C3F34C43642000FB03F30193019B41
:1067A8004BB1019B013B0193154B9B6813F0020F02
:1067B800F5D0002001E001209060124BFF241C70EE
:1067C8000E4B1B68C3EBC303C3F34C43642404FBA5
:1067D80003F30193019B43B1019B013B0193084BD8
:1067E8009B6813F0010FF5D001E001209060044B85
:1067F800DB680B7003B010BC704700BF4C00002072
:10680800000001580C00015882B0134B1B6803EBC1
:106818004303C3F34B43642202FB03F3019306E0F3
:1068280002238360012002B07047134212D00B4B41
:106838005B6913F0040300D00123019A002AEFD00A
:10684800019A013A0192054A526912F00202ECD00B
:106858000122EAE70020E6E74C0000200004005887
:1068680000B583B00379012B04D0FFF7CDFF03B047
:106878005DF804FB0D4B1B6803EB4303C3F34F3375
:1068880001930B4AD2F8903023F40043C2F89030B9
:10689800019B013B0193019B002BF9D1044AD2F8DB
:1068A800903043F40043C2F89030DEE74C000020FB
:1068B800000400582DE9F041054680795FFA80F818
:1068C800B8F1010F3ED10C4617461E466B79012BD5
:1068D8003BD001236B710223AB712846FFF7C0FF41
:1068E8001B4AD2F8903023F40043C2F890300D21AF
:1068F8002846FFF709FF210A2846FFF705FFE1B2FE
:106908002846FFF701FF002405E0395D2846FFF718
:10691800FBFE0134A4B2B442F7D30D4AD2F890304A
:1069280043F40043C2F890302846FFF76DFFAB6888
:106938000BB94FF000080123AB7100236B7140467F
:10694800BDE8F0814FF00208F9E74FF00208F6E7DA
:10695800000400582DE9F041064680795FFA80F876
:10696800B8F1010F41D10C4615461F467379012B2A
:106978003ED0012373713046FFF772FF1E4AD2F8EA
:10698800903023F40043C2F890301D213046FFF7C1
:10699800BBFE210A3046FFF7B7FEE1B23046FFF7EB
:1069A800B3FE00213046FFF7AFFE002406E029467B
:1069B8003046FFF7E7FE01350134A4B2BC42F6D3F6
:1069C8000D4AD2F8903043F40043C2F89030304674
:1069D800FFF71AFFB3680BB94FF000080123B37132
:1069E800002373714046BDE8F0814FF00208F9E7D3
:1069F8004FF00208F6E700BF000400582DE9F843FD
:106A0800054680795FFA80F9B9F1010F43D18846CC
:106A180017461E466B79012B40D001236B7128461F
:106A2800FFF71EFFB8F1840F05D0B8F1940F02D01C
:106A380000232B7101E001232B711A4AD2F8903000
:106A480023F40043C2F8903041462846FFF75CFE25
:106A5800002405E0395D2846FFF756FE0134A4B24C
:106A6800B442F7D30F4AD2F8903043F40043C2F847
:106A78009030B8F1840F0AD1AB680BB94FF0000918
:106A88000123AB7100236B714846BDE8F8832846A3
:106A9800FFF7BAFEF0E74FF00209F5E74FF00209F9
:106AA800F2E700BF000400582DE9F041064680795E
:106AB8005FFA80F8B8F1010F39D10C4615461F4628
:106AC8007379012B36D0012373713046FFF7C8FE66
:106AD8001A4AD2F8903023F40043C2F89030214685
:106AE8003046FFF711FE00213046FFF70DFE002467
:106AF80006E029463046FFF745FE01350134A4B2C9
:106B0800BC42F6D30D4AD2F8903043F40043C2F8A1
:106B180090303046FFF778FEB3680BB94FF00008A5
:106B28000123B371002373714046BDE8F0814FF033
:106B38000208F9E74FF00208F6E700BF0004005822
:106B480030B583B005460023ADF80430022301AA0E
:106B58001221FFF7A9FF9DF804409DF8053043EA8C
:106B6800042413F0010F26D114F0020F27D114F0DA
:106B7800040F28D114F0080F29D114F0100F2AD1CE
:106B880014F0200F2BD114F0400F2CD114F0800FEB
:106B980006D014F4807F2AD0012128460CF008F88A
:106BA80014F4007F28D1022301AA19462846FFF7CA
:106BB80025FF03B030BD28460BF0E2FFD4E7284696
:106BC8000BF0E6FFD3E728460CF016F8D2E7284684
:106BD8000CF01AF8D1E728460CF01EF8D0E7284642
:106BE8000CF002F8CFE728460BF0DAFFCEE70021D9
:106BF80028460BF0DDFFD3E728460BF0EBFFD2E782
:106C08002DE9F041054680795FFA80F8B8F1010F67
:106C180038D10C4617461E466B79012B35D0012317
:106C28006B712846FFF71CFE194AD2F8903023F4FE
:106C38000043C2F890300E212846FFF765FD214633
:106C48002846FFF761FD002405E0395D2846FFF777
:106C58005BFD0134A4B2B442F7D30D4AD2F89030A8
:106C680043F40043C2F890302846FFF7CDFDAB68E7
:106C78000BB94FF000080123AB7100236B7140463C
:106C8800BDE8F0814FF00208F9E74FF00208F6E797
:106C9800000400582DE9F041064680795FFA80F833
:106CA800B8F1010F3DD10C4615461F467379012BEB
:106CB8003AD0012373713046FFF7D2FD1C4AD2F84F
:106CC800903023F40043C2F890301E213046FFF77D
:106CD8001BFD21463046FFF717FD00213046FFF720
:106CE80013FD002406E029463046FFF74BFD013529
:106CF8000134A4B2BC42F6D30D4AD2F8903043F422
:106D08000043C2F890303046FFF77EFDB3680BB9F8
:106D18004FF000080123B371002373714046BDE8AA
:106D2800F0814FF00208F9E74FF00208F6E700BFDC
:106D380000040058026852E8003F23F0C00342E80C
:106D480000310029F6D1026802F1080353E8003F38
:106D580023F40003083242E800310029F3D120234C
:106D6800C0F884307047026852E8003F23F49073FB
:106D780042E800310029F6D1026802F1080353E81D
:106D8800003F23F0805323F00103083242E800312A
:106D98000029F1D1C36E012B06D02023C0F888301A
:106DA8000023C36603677047026852E8003F23F078
:106DB800100342E800310029F6D1EEE7D0F884301C
:106DC800202B4CD110B5044600294AD0002A4AD0BD
:106DD80090F88030012B48D0012380F8803001657D
:106DE800A0F85420A0F856200023C0F88C302123A6
:106DF800C0F88430836FF3B11D49D962836F1D4990
:106E08001963836F1C495963836F00219963016873
:106E1800134601F12802016D806FFDF7D1FF50B1D3
:106E28001023C4F88C30002384F880302023C4F861
:106E38008430012012E0236840221A62002384F87B
:106E48008030226802F1080353E8003F43F08003D2
:106E5800083242E800310029F3D1002010BD022099
:106E680070470120FAE70120F8E70220F6E700BFA3
:106E7800856E0008F36E0008FF6E000808B503462B
:106E8800806A1B681B6813F0200F18D10023A0F834
:106E98005630026802F1080353E8003F23F08003EC
:106EA800083242E800310029F3D1026852E8003F75
:106EB80043F0400342E800310029F6D108BDFCF751
:106EC80015FEFBE708B5026852E8003F23F04003CF
:106ED80042E800310029F6D12023C0F8843000238D
:106EE8004367FCF703FE08BD704708B5806AFFF7E3
:106EF800FBFF08BD704738B5846AD4F88420D4F8FD
:106F0800885023689B6813F0800F01D0212A10D085
:106F180023689B6813F0400F01D0222D10D0D4F8BD
:106F28008C3043F01003C4F88C302046FFF7E2FFA2
:106F380038BD0023A4F856302046FFF7FBFEE7E7EC
:106F48000023A4F85E302046FFF70DFFE7E708B5F9
:106F5800806A0023A0F85E30A0F85630FFF7CAFF19
:106F680008BD704770B504460168CB6908688D682C
:106F780040F60F021A4008D113F0200F05D010F088
:106F8800200F34D115F0805F31D12AB1BD4A2A4093
:106F980033D1BD4E304230D1E26E012A00F0C380B9
:106FA80013F4801F03D015F4800F40F0558113F0BF
:106FB800800F07D010F0800F40F0558115F4000FB6
:106FC80040F0518113F0400F03D010F0400F40F013
:106FD800518113F4000F03D010F0804F40F04E8120
:106FE80013F0807F02D00028C0F2528170BD236F59
:106FF800002BFBD020469847F8E713F0010F09D083
:1070080010F4807F06D001260E62D4F88C1031432C
:10701800C4F88C1013F0020F0BD015F0010F08D034
:10702800216802260E62D4F88C1041F00401C4F8DD
:107038008C1013F0040F0BD015F0010F08D0216845
:1070480004260E62D4F88C1041F00201C4F88C10AA
:1070580013F0080F0BD010F0200F00D13AB12268BE
:1070680008211162D4F88C200A43C4F88C2013F448
:10707800006F0CD010F0806F09D022684FF40061C7
:107088001162D4F88C2042F02002C4F88C20D4F885
:107098008C20002AAAD013F0200F09D010F0200F5E
:1070A80002D115F0805F03D0236F0BB120469847BB
:1070B800D4F88C2023689B6813F0400F02D112F09B
:1070C800280F29D02046FFF74EFE23689B6813F04F
:1070D800400F1DD0226802F1080353E8003F23F057
:1070E8004003083242E800310029F3D1E36F5BB175
:1070F800664A9A63E06FFDF7E9FE00283FF476AF31
:10710800E06F836B984771E72046FFF7F3FE6DE762
:107118002046FFF7EFFE69E72046FFF7EBFE002366
:10712800C4F88C3062E713F0100F3FF439AF10F059
:10713800100F3FF435AF10230B6223689B6813F0E0
:10714800400F4FD0E26F13685B689BB2002B3FF48F
:107158004DAFB4F85C1099427FF648AFA4F85E30A2
:1071680013681B6813F0200F31D1226852E8003FE2
:1071780023F4807342E800310029F6D1226802F135
:10718800080353E8003F23F00103083242E80031C6
:107198000029F3D1226802F1080353E8003F23F0E5
:1071A8004003083242E800310029F3D12023C4F813
:1071B80088300023E366226852E8003F23F010037A
:1071C80042E800310029F6D1E06FFDF745FEB4F83A
:1071D8005C10B4F85E309BB2C91A89B22046FFF73A
:1071E800C0FE03E7B4F85C10B4F85E309BB2C91A6D
:1071F80089B2B4F85E309BB2002B3FF4F7AE002999
:107208003FF4F4AE226852E8003F23F4907342E85A
:1072180000300028F6D1226802F1080353E8003F45
:1072280023F0805323F00103083242E8003000289D
:10723800F1D12023C4F888300023E366236722684D
:1072480052E8003F23F0100342E800300028F6D14E
:107258002046FFF786FEC9E64FF480130B622046EE
:1072680000F014FEC2E6636F002B3FF4BFAE204669
:107278009847BBE62046FFF725FEB7E6204600F014
:1072880007FEB3E60100001020010004576F000854
:10729800204600F0FCFDA9E608B5B0F86030D0F84B
:1072A8008820222A05D00268936943F00803936175
:1072B80008BD0268516ADBB2826D0B401370836DA2
:1072C80001338365B0F85E309BB2013B9BB2A0F8F6
:1072D8005E30B0F85E309BB2002BE9D1026852E80C
:1072E800003F23F4907342E800310029F6D1026888
:1072F80002F1080353E8003F23F00103083242E893
:1073080000310029F3D12023C0F888300023036717
:10731800C36E012B16D10023C366026852E8003FF2
:1073280023F0100342E800310029F6D10368DA6936
:1073380012F0100F01D010221A62B0F85C10FFF79B
:1073480010FEB5E7FCF7DAFBB2E708B5B0F8602045
:10735800D0F88830222B05D00268936943F00803DF
:10736800936108BD03685B6A816D13400B80836D70
:1073780002338365B0F85E309BB2013B9BB2A0F844
:107388005E30B0F85E309BB2002BEAD1026852E85A
:10739800003F23F4907342E800310029F6D10268D7
:1073A80002F1080353E8003F23F00103083242E8E2
:1073B80000310029F3D12023C0F888300023036767
:1073C800C36E012B16D10023C366026852E8003F42
:1073D80023F0100342E800310029F6D10368DA6986
:1073E80012F0100F01D010221A62B0F85C10FFF7EB
:1073F800B8FDB6E7FCF782FBB3E700002DE9F843D8
:10740800B0F860600368DD69D3F80090D3F80880AD
:10741800D0F88820222A05D09A6942F008029A6199
:10742800BDE8F8830446B0F8687008E0D4F88C30FA
:10743800002B4CD1B4F85E309BB2002B4ED0002FFD
:1074480000F0878015F0200F00F083802368596AC8
:10745800F3B2A26D0B401370A36D0133A365B4F8AA
:107468005E309BB2013B9BB2A4F85E302368DD69B5
:1074780015F0070FDED015F0010F09D019F4807F41
:1074880006D001221A62D4F88C301343C4F88C3029
:1074980015F0020F0BD018F0010F08D02368022254
:1074A8001A62D4F88C3043F00403C4F88C3015F019
:1074B800040FBBD018F0010FB8D0236804221A6259
:1074C800D4F88C3043F00203C4F88C30AEE7204681
:1074D800FFF710FD0023C4F88C30ABE7226852E8B0
:1074E800003F23F4807342E800310029F6D1226876
:1074F80002F1080353E8003F23F0805323F001030F
:10750800083242E800310029F1D12023C4F888303C
:1075180000232367E36E012B03D02046FCF7EEFA25
:107528008DE70023E366226852E8003F23F010034A
:1075380042E800310029F6D12368DA6912F0100F09
:1075480001D010221A62B4F85C102046FFF709FD3A
:1075580075E7B4F85E309BB2002B3FF461AFB4F826
:1075680068209A427FF65CAF226802F1080353E86C
:10757800003F23F08053083242E800310029F3D15C
:10758800054B2367226852E8003F43F0200342E896
:1075980000310029F6D143E7A17200082DE9F8432C
:1075A800B0F860600368DD69D3F80090D3F808800C
:1075B800D0F88820222A05D09A6942F008029A61F8
:1075C800BDE8F8830446B0F8687008E0D4F88C3059
:1075D800002B4BD1B4F85E309BB2002B4DD0002F5E
:1075E80000F0868015F0200F00F0828023685B6A27
:1075F800A26D33401380A36D0233A365B4F85E30E7
:107608009BB2013B9BB2A4F85E302368DD6915F09C
:10761800070FDFD015F0010F09D019F4807F06D0CD
:1076280001221A62D4F88C301343C4F88C3015F058
:10763800020F0BD018F0010F08D0236802221A623B
:10764800D4F88C3043F00403C4F88C3015F0040FE0
:10765800BCD018F0010FB9D0236804221A62D4F8FC
:107668008C3043F00203C4F88C30AFE72046FFF7B4
:1076780041FC0023C4F88C30ACE7226852E8003F94
:1076880023F4807342E800310029F6D1226802F120
:10769800080353E8003F23F0805323F00103083226
:1076A80042E800310029F1D12023C4F888300023B2
:1076B8002367E36E012B03D02046FCF71FFA8EE701
:1076C8000023E366226852E8003F23F0100342E8F3
:1076D80000310029F6D12368DA6912F0100F01D0C1
:1076E80010221A62B4F85C102046FFF73AFC76E7DD
:1076F800B4F85E309BB2002B3FF462AFB4F8682058
:107708009A427FF65DAF226802F1080353E8003F12
:1077180023F08053083242E800310029F3D1064BA8
:107728002367226852E8003F43F0200342E8003113
:107738000029F6D144E700BF537300082DE9F04152
:107748000446016883680269134342691343C269A6
:1077580013430868A14A024013430B602268536828
:1077680023F44053E1680B435360A16922689C4BA2
:107778009A4201D0236A1943936823F06E4323F495
:1077880030630B4393602268D36A23F00F03616A66
:107798000B43D3622268934B9A421CD0924B9A4275
:1077A80031D08F4B9A424BD010238D498A4268D0F2
:1077B800E069B0F5004F00F0A780082B00F22281A5
:1077C800DFE813F0D500F800D3002001FB0020010A
:1077D80020012001FE004FF0B043D3F8883003F0B9
:1077E800030343F44033A3F54033032B09D8DFE800
:1077F80003F002043C060123D7E70423D5E7082356
:10780800D3E71023D1E74FF0B043D3F8883003F023
:107818000C0343F44023A3F540230C2B0ED8DFE8D8
:1078280003F0070D0D0D090D0D0D260D0D0D0B00A7
:107838000023BAE70423B8E70823B6E71023B4E720
:107848004FF0B043D3F8883003F44063B3F5006FCA
:107858000FD005D87BB1B3F5806F0ED10423A4E710
:10786800B3F5406F0BD108239FE702239DE702235E
:107878009BE7022399E7002397E7102395E7102356
:1078880093E7082B00F29F80DFE803F0089D3C9DFA
:10789800399D9D9D05004FF4004004E0FEF714FB60
:1078A800002800F09280626A504B33F81220B0FB37
:1078B800F2F3656805EB4501994200F28880B3EB65
:1078C800053F00F286804FF0000892B2002341463F
:1078D800FBF7B6F90F0247EA1067060268082A465E
:1078E8004346301847F10001FBF7AAF9A0F54072AA
:1078F8003F4B9A426FD82368D860404650E0FDF766
:10790800DBFDCDE73B48CEE7082B75D8DFE803F071
:10791800072705742A7474740B00364803E0FEF7D1
:10792800D3FA00286AD0626A304B33F81230B0FBC1
:10793800F3F06268530803EB4000B0FBF2F080B24A
:10794800A0F110024FF6EF739A4259D820F00F03B6
:10795800C0F3420018432368D860002020E0FEF7F7
:10796800C3FADEE7FDF7A8FDDBE7224803E0FEF7F0
:10797800ABFA002848D0626A1C4B33F81230B0FBCF
:10798800F3F0636800EB5300B0FBF3F080B2A0F1B2
:1079980010024FF6EF739A4238D82368D860002057
:1079A8000123A4F86A30A4F86830002323676367CA
:1079B800BDE8F081FEF798FADBE7FDF77DFDD8E733
:1079C8004FF40040D7E70120EAE70020E8E701206C
:1079D800E6E70120E4E70120E2E700BFF369FFCF13
:1079E800008000400038014000440040C03F0108CA
:1079F800FFFC0F000024F4000120D1E70020CFE7AE
:107A08000120CDE70120CBE70020C9E70120C7E727
:107A1800836A13F0010F06D00268536823F4003319
:107A2800C16A0B435360836A13F0020F06D00268E1
:107A3800536823F48033016B0B435360836A13F05C
:107A4800040F06D00268536823F48023416B0B436C
:107A58005360836A13F0080F06D00268536823F452
:107A68000043816B0B435360836A13F0100F06D0F9
:107A78000268936823F48053C16B0B439360836A55
:107A880013F0200F06D00268936823F40053016CAA
:107A98000B439360836A13F0400F0AD0026853685F
:107AA80023F48013416C0B435360436CB3F5801F80
:107AB8000BD0836A13F0800F06D00268536823F452
:107AC8000023C16C0B43536070470268536823F46A
