:020000040800F2
:102000000080002085E30008A76F0008A96F000882
:10201000AB6F0008AD6F0008AF6F00080000000054
:10202000000000000000000000000000B16F000888
:10203000B36F000800000000B56F0008B76F00081C
:10204000D5E30008D5E30008B96F0008D5E3000820
:10205000D5E30008D5E30008D5E30008D5E3000880
:10206000D5E30008D5E30008D5E30008D5E3000870
:10207000D5E30008D5E30008D5E30008C96F0008E0
:10208000D5E30008D5E30008D5E30008D5E3000850
:1020900000000000D5E30008D5E30008D5E3000800
:1020A000D5E30008D5E30008D5E30008D5E3000830
:1020B000D5E30008D5E30008D5E30008D5E3000820
:1020C000D5E30008D5E30008D5E30008D5E3000810
:1020D000D5E30008D5E30008D96F0008E96F0008D0
:1020E000D5E30008D5E30008F96F0008D5E3000840
:1020F000D5E300080000000000000000D5E3000860
:10210000D5E30008D5E3000809700008D5E300080E
:10211000D5E30008D5E30008D5E30008D5E30008BF
:10212000D5E30008D5E30008D5E30008D5E30008AF
:08213000D5E30008D5E3000827
:1021400010B5054C237833B9044B13B10448AFF3F1
:1021500000800123237010BDB402002000000000A5
:10216000A848020808B5034B1BB103490348AFF365
:10217000008008BD00000000B8020020A848020846
:102180007CB504000025C6480078002801D0112045
:1021900002E1002C01D11320FEE03B2069460871CA
:1021A00068460BF0B8FB0500EDB2002D05D01021FC
:1021B0002800C0B200F095FCEEE0684600793B28AC
:1021C00001D01220E8E0B7496C200BF02DFB050090
:1021D000B4480068002802D0EDB2002D05D01021CF
:1021E0002800C0B200F07DFCD6E0AE480068643044
:1021F00001F062FC0600B6B2002E06D0A9480068C5
:102200000BF01CFB300080B2C6E06846407800024C
:10221000694609780843A34909688884607B0228D5
:102220002CD103209F4909688860B5489D490968F9
:10223000C86000209B4909680861206999490968BC
:102240008862207E97490968302288546069AD49C8
:1022500088420AD1FA20400092490968C8620320E6
:10226000904909683122885408E000208D490968A6
:10227000C86202208B49096831228854607B01289A
:1022800019D1A148874909688860002085490968F3
:10229000C8600020834909680861012081490968F4
:1022A000322288546846C07800026946897808431B
:1022B0007C490968888620687A49096808606068EE
:1022C000784909684860607B7649096856228854D5
:1022D000A068744909688865207B012805D16420BD
:1022E000704909685C22885208E0207B022805D1E9
:1022F000962080006B4909685C228852207B6949DE
:10230000096868228854A068A14988420AD13C2003
:10231000644909685E2288529E48624909686022C1
:10232000885229E0A0689C4988420BD108205D4969
:1023300009685E228852FA20C0005A490968602262
:10234000885219E0A068954988420AD13C20554935
:1023500009685E2288526A48524909686022885298
:102360000AE0504800680BF069FA050014212800C3
:10237000C0B200F0B6FB0FE0607B042802D102205F
:1023800047490870607B012802D0607B022802D197
:10239000012043490870002076BD38B5002500248F
:1023A0003F480078002801D1212012E03D48006814
:1023B0000BF044FA0500EDB2002D01D020200400FE
:1023C0000020374908702100C9B22800C0B200F0CF
:1023D00088FB32BDF8B584B007000C0016000A9DDA
:1023E000EDB2012D03D101206946087302E00020FF
:1023F00069460873002F01D133201EE0E4B20D2C92
:1024000001DB302019E0002E04D1EDB2012D01D105
:10241000312012E06846007B02906846007C019003
:1024200000962300DBB23A0001211E48006800F04C
:1024300070FC6946C8816846C08905B0F0BDF0B53A
:1024400085B007000D0016001C00E4B2012C03D17A
:1024500001206946087302E00020694608730220E3
:10246000384369464873002D04D1E4B2012C01D1F0
:10247000342012E06846007B02903000C0B2019028
:102480000095002303AA521C00210648006800F0B2
:1024900040FC6946C8816846C08905B0F0BD0000AF
:1024A000D0020020D8020020FEB506000525002439
:1024B000F6B2022E01DB352020E0F6B2002E04D168
:1024C000032005000720040006E0F6B2012E03D128
:1024D0000420050005200400002002900220019045
:1024E000002000902300DBB200222900C9B28948F5
:1024F000006800F00EFC0700380080B2FEBD00004E
:1025000088130000E0930400FF010000F8B5060006
:102510000C0017000025FFB23800002808D0012861
:102520000DD0022811D0032815D0052819D01EE09F
:10253000B3483060002C01D0132020701DE0210032
:1025400030000BF0B7FA050017E0210030000BF067
:102550007BFE050011E02100300002F05FFC050069
:102560000BE02100300002F0F3FE050005E05D21E4
:102570002800C0B200F0B5FA09E0EDB2002D05D098
:102580005C212800C0B200F0ACFA00E00020F2BDEF
:1025900000EE020008520000D4300000A08C0000C1
:1025A00038B505000C009748007801284CD1286800
:1025B000584909688860686856490968C860A86809
:1025C000544909680861534800680069C0050ED580
:1025D00050480068806D8C49884208D1B9484D49FF
:1025E00009688865B8484B4909686022885249489B
:1025F00000685621405C012811D14648006800F06F
:10260000EBF944490968C88642480068C08E002832
:1026100001D1412019E03F480068322144543D482F
:1026200000685621405C02280BD13A480068806857
:10263000002804D037480068C068062801D240202E
:1026400003E002206F490870002032BD70B506001B
:102650000C006C480078002801D058202FE00020A2
:102660000BF008FC0500EDB2002D05D05721280025
:10267000C0B200F036FA22E030000BF061FD050038
:10268000EDB2002D07D00BF09DFC57212800C0B201
:1026900000F027FA13E02000C0B20BF0F9FC0500AF
:1026A000EDB2002D07D00BF08DFC57212800C0B2F1
:1026B00000F017FA03E0032052490870002070BDB3
:1026C00010B550480078032801D05A2021E00BF0C3
:1026D00027FD0400E4B2002C08D00020494908700E
:1026E00059212000C0B200F0FCF912E00BF06AFCA6
:1026F0000400E4B2002C08D000204249087059219F
:102700002000C0B200F0EDF903E000203D49087060
:10271000002010BDD8020020F8B584B006000F00DC
:102720001500002403A89D490A680260002F01D10A
:10273000532062E0EDB20D2D01DB52205DE0314807
:102740000078022801D0512057E003202D4908705D
:1027500000200400E4B2042C0EDA2C480068E4B235
:1027600000196421405C03A9E4B2095D884201D0EC
:10277000502042E0641CEDE76846007C0190002098
:1027800000902B00DBB23A0001212048006800F0E5
:10279000D9FB6946488168464089002802D06846CE
:1027A00040892AE01948006800F091FA69460872E9
:1027B0006846007A002805D054216846007A00F067
:1027C00090F91AE0002E05D100211048006801F0B0
:1027D00013F90600320000210C48006800F038FDB3
:1027E0006946488168464089002802D06846408989
:1027F00003E0022003490870002005B0F0BD00008E
:10280000444C0208D0020020A08C0000D802002016
:10281000FEB582B005000A9F0024684660490A6838
:10282000026060480078022801D0562048E0042069
:102830005C49087000200400E4B2042C0EDA5A4807
:102840000068E4B200196421405C6946E4B2095DA5
:10285000884201D0552033E0641CEDE7002D04D1FF
:102860005148006801F026F905002A006846017CFD
:102870006846007A00F0A4FF0600B6B2002E02D02F
:10288000300080B21CE0039A6846017A464800682E
:1028900000F0DAFF0600B6B29B2E02D102204149B9
:1028A0000870B6B2002E02D0300080B208E03E4878
:1028B00000686221405A388002203A49087000209E
:1028C00005B0F0BD00EE02000852000000B50100A6
:1028D0000878002810D002280AD005D303280FD189
:1028E0003248007808700DE031480078087009E03F
:1028F00030480078087005E02F480078087001E043
:102900005F2000E0002000BD80B501F0D5F802BDD9
:1029100038B5040002F099FA0500EDB2002D05D09B
:102920005B212800C0B200F0DCF81BE0200002F0C0
:1029300095FA0500EDB2002D07D002F088FA5B2170
:102940002800C0B200F0CDF80CE002F080FA0500DB
:10295000EDB2002D05D05B212800C0B200F0C1F817
:1029600000E0002032BD38B504000025A4B21348B1
:10297000844201DBB1200FE02000401C80B202F055
:102980000FFC0500EDB2002D05D0B0212800C0B22B
:1029900000F0A7F800E0002032BD00003C4C020827
:1029A000404C0208D0020020D8020020D1020020B2
:1029B000D2020020D3020020D4020020FF0F00002A
:1029C0000100C8780202887802434878000209783A
:1029D0000843504080B2704710B501000020002429
:1029E0002300DBB2032B11DA00242200D2B2202A0A
:1029F0000ADADBB204245C430C19A468D440E4076F
:102A000000D5401C521CF1E75B1CEAE7062460433A
:102A100080B210BDF3B581B000240025684600895E
:102A2000401E062103F0B6F9401C694608700020DC
:102A30000600F6B2032E2ADA280069460978C0B2E9
:102A4000884224D000200700FFB2202F1DDA280082
:102A500069460978C0B2884217D00198F6B20421BD
:102A6000714340188068F840C0070CD56D1C68465B
:102A700000782900C9B2884205D1F6B220207043FF
:102A8000FFB2C01904007F1CDEE7761CD1E72000EE
:102A9000C0B2FEBD70B504000D00A06D5C21615A8E
:102AA00003F066F906006020205A5C21615A03F0A9
:102AB00071F9301AEDB25E21615A4D43401B80B26C
:102AC00070BD30B504000D006020205A5C21615AB1
:102AD00003F060F9EDB25E21615A4D43401980B2B6
:102AE00030BDC0B20002C9B2084380B270470100D5
:102AF0000120491E884080214843401E80B2704713
:102B0000F4B504000E0000255620205C042803D0F4
:102B10005620205C022853D1A08C002804D0A08C21
:102B200080210901884206DB20006430FFF748FF5E
:102B30004005400DA0846846007801281ED101217F
:102B40002000FFF7A7FF070001212000FFF7B9FFD2
:102B500001233A0092B2010089B2A08C00F0D8FFA4
:102B6000A084A08C2083A08C5E21615A40186083D1
:102B7000A08C5E21615A401AA08321E0002005004C
:102B8000EDB2F6B23000401C854219DA0021200077
:102B9000FFF780FF070000212000FFF792FF0123CD
:102BA0003A0092B2010089B2A08C00F0B1FFA0847B
:102BB000A08CEDB202216943611808836D1CDFE728
:102BC0005620205C012864D1A08E002804D0A08E5D
:102BD00080210901884206DB20006430FFF7F0FE07
:102BE0004005400DA086A08C002802D0A08C802833
:102BF00006DB20006430FFF7E3FE4006400EA084B1
:102C00006846007801281ED10123E28E521D92B23F
:102C10000821A08E00F07CFFA0860023262204213C
:102C2000A08C00F075FFA084A08E2087A08E401C91
:102C30006087A08E401EA087A08C2083A08C60831C
:102C4000A08CA08325E000200500EDB2F6B2300094
:102C5000401C85421DDA0123E28E921D92B20721AB
:102C6000A08E00F055FFA086002326220421A08C10
:102C700000F04EFFA084A08EEDB2022169436118DE
:102C80000887A08CEDB202216943611808836D1C8E
:102C9000DBE7F1BD70B5C9B202254D4345192D8B57
:102CA0005C26865B75432A000568AD18866D76083C
:102CB000AD1B2B000568AB4201D3012401E00024C9
:102CC000E443856A64B2C06A4443281970BD38B5CC
:102CD0000400A08C69460870A08C80B2000A694686
:102CE00048705620205C012807D1A08E6946887064
:102CF000A08E80B2000A6946C87068460AF015FEC8
:102D00000500EDB2002D02D02800C0B200E0002086
:102D100032BDFEB584B005000E9F00206946488193
:102D2000002069460872FFB2012F02D101206946D6
:102D300008726846007A012805D10020B74908705A
:102D40000020B7490870B7480078022801D06020F9
:102D5000F6E00320B34908700020542168540DA800
:102D60000078002803D100206946487202E0022062
:102D7000694648726846007A01906846407A009039
:102D80006846037E059A6846017C280000F0DAF860
:102D90000400A4B2002C02D0200080B2D0E02800B1
:102DA000FFF795FF0600F6B2002E05D06121300036
:102DB000C0B2FFF796FEC3E05620285C022805D17A
:102DC0006846E96841810020974908706846438950
:102DD0006846427A3900C9B2280000F0D4FA0400EB
:102DE000A4B2002C08D0A4B27E2C02D102208D49BE
:102DF0000870200080B2A3E06846007A012861D103
:102E00000420884908703A00D2B20C99280000F0DA
:102E10009BFC0400A4B2002C08D0A4B29B2C02D1CD
:102E2000022080490870200080B289E0FFB2012FA3
:102E300048D103207B49087002200AF029FD0600D2
:102E4000F6B2002E05D064213000C0B2FFF749FE73
:102E500076E000200190002000900823002202214B
:102E6000280000F06FF80400A4B2002C02D020006B
:102E700080B265E02800FFF72AFF0600F6B2002EB8
:102E800005D062213000C0B2FFF72BFE58E056207B
:102E9000285C022802D16548694648816846438912
:102EA00000220021280000F06EFA0400A4B2002CD9
:102EB00008D0A4B27E2C02D102205A49087020000A
:102EC00080B23DE05420285C012835D100205421F7
:102ED0006854002001900020009005230022042166
:102EE000280000F02FF80400A4B2002C02D020002B
:102EF00080B225E02800FFF7EAFE0600F6B2002EB9
:102F000005D063213000C0B2FFF7EBFD18E056207A
:102F1000285C022802D16846E968418168464389F5
:102F200002220021280000F02EFA0400A4B2002C96
:102F300002D0200080B203E002203A49087000204D
:102F400007B0F0BDF7B504000F001D00099E30006A
:102F5000C0B200902B00DBB2029A3900C9B2200047
:102F600000F068F86946888068468088002802D0AA
:102F70006846808851E0FFB2022F09DB2C48408967
:102F8000E0832B48C08A20842948408C60843CE040
:102F90005520205C10281BDA25485521615C02224F
:102FA000514340181C380088E08321485521615C5A
:102FB0000222514340181038008820841C485521B3
:102FC000615C022251434018001F008860841CE0AD
:102FD00017485521615C0A39891002225143405A31
:102FE000E08313485521615C0A398910022251435C
:102FF0004018808920840E485521615C0A39891067
:10300000022251434018008B60843200D2B208A8DB
:1030100001782000FFF774FD0020FEBDD2020020E1
:10302000D3020020D0020020D4020020280A000091
:10303000584C0208F6B585B004001F000020694610
:10304000C874002069468874002069460882002000
:103050006946C8810020694688816846007D00284D
:103060001BD0022850D004D3042800D183E019D308
:10307000ADE00020050028003900C0B2C9B2884286
:103080000AD20698EDB2415D2800801DC0B220181A
:103090003E2281546D1CEEE799E0069800784421A9
:1030A000605494E003AA03A9891C04A80AF0C8FB91
:1030B0000600F6B2002E05D092213000C0B2FFF714
:1030C00010FDC3E00820442160546846008A452171
:1030D00060546846008A80B2000A462160546846FF
:1030E000C089472160546846C08980B2000A4821DF
:1030F0006054039800B249216054039800B280B232
:10310000000A4A21605462E003AA03A9891C04A8AA
:103110000AF096FB0600F6B2002E05D0932130008F
:10312000C0B2FFF7DEFC91E00920442160546846FC
:10313000008A452160546846008A80B2000A462110
:1031400060546846C089472160546846C08980B28F
:10315000000A48216054039800B249216054039842
:1031600000B280B2000A4A2160546220205A6430C2
:103170004B2160542BE001206946C87403AA03A9BF
:10318000891C04A80AF05CFB0600F6B2002E05D0EC
:1031900095213000C0B2FFF7A4FC57E00A2044217B
:1031A00060546846008AC82102F0F4FD452160544D
:1031B0006846C089C82102F0EDFD4621605403989D
:1031C00000B20A2102F0E6FD47216054FFE701F05A
:1031D0003CFE0600F6B2002E05D090213000C0B2B1
:1031E000FFF77FFC32E020005530029020003E3097
:1031F000019004A8801C00906846C37C0CA802784B
:103200003900C9B22000443001F02DFE0600F6B2AC
:10321000002E07D001F01BFE90213000C0B2FFF756
:1032200060FC13E001F013FE0600F6B2002E05D09C
:1032300090213000C0B2FFF754FC07E05420205C1E
:103240006946897C014354202154002007B0F0BD19
:10325000F0B587B005000E00170000200AF00AFE46
:103260000400E4B2002C05D097212000C0B2FFF783
:1032700038FC50E038000AF063FF0400E4B2002C90
:1032800007D00AF09FFE97212000C0B2FFF729FC6B
:1032900041E0AA2069460870AA2069464870F6B243
:1032A000022070432818C08B80B2000A69468870DB
:1032B000F6B2022070432818C08B6946C8703300EC
:1032C000DBB25520285C021FD2B26846011D2800DF
:1032D0003E3000F073FC55202A5C6820295C68466B
:1032E0000AF080FE0400E4B2002C07D00AF06AFE67
:1032F00097212000C0B2FFF7F4FB0CE00AF062FE59
:103300000400E4B2002C05D097212000C0B2FFF7E2
:10331000E8FB00E0002007B0F0BDF1B50F0016009B
:103320001D003800C0B20AF0A5FD0400E4B2002C74
:1033300002D02000C0B225E030000AF001FF0400F6
:10334000E4B2002C04D00AF03DFE2000C0B219E027
:103350002A0000983021415605200AF035FF04006C
:10336000E4B2002C04D00AF02DFE2000C0B209E027
:103370000AF028FE0400E4B2002C02D02000C0B203
:1033800000E00020F2BDFAB585B00500170000206E
:103390006946888000206946087000206946C88018
:1033A0000020694648706846007D012802D101204E
:1033B000694648705620285C012803D0684640784A
:1033C000012803D100206946C87002E00120694647
:1033D000C8705620285C012823D13220285C01289F
:1033E0001FD1FFB2002F1CD068464078012818D1A9
:1033F0000A200AF0CDFA0400E4B2002C05D07021B6
:103400002000C0B2FFF76DFB9AE10AF00BFB04004D
:10341000E4B2002C05D071212000C0B2FFF761FB9F
:103420008EE16846008B002872D05620285C022866
:103430006ED16846008B0AF083FA0400E4B2002CD7
:1034400005D077212000C0B2FFF74BFB78E10021C7
:103450002800FFF71FFC03906B46039A3120295C7C
:103460002800FFF75AFF0400E4B2002C05D07621B3
:103470002000C0B2FFF735FB62E168460078002803
:1034800013D168468088A968491E89B288421CD237
:1034900003200AF0FDF90400E4B2002C15D07921D4
:1034A0002000C0B2FFF71DFB4AE168460078012802
:1034B0000BD10AF0A7FA0400E4B2002C05D0782161
:1034C0002000C0B2FFF70DFB3AE1684669468988E3
:1034D000491C818068468088A96889B2884203D2E5
:1034E000684600780128A4D16846964909784907BA
:1034F000490F01726846007A92490978C9B2C90831
:10350000C9B26A4692888918C90040188D49087066
:103510005620285C022809D15620285C022800D0B9
:1035200007E168460078012800D002E100206946E2
:10353000887000200600F6B2FFB23800401C8642B8
:1035400000DBDAE068468078002800D0D5E0310062
:10355000C9B2280000F050FA0490049A3100C9B2B0
:103560002800FFF775FE69464881684640890028B3
:1035700002D068464089E3E05620285C022804D146
:1035800070480078401C6F490870F6B2002E19D1BF
:103590006846007D012815D15620285C022804D1F8
:1035A00013200AF0F5F9040003E014200AF0F0F902
:1035B0000400E4B2002C2ED075212000C0B2FFF729
:1035C00090FABDE0F6B2002E25D15620285C0128E5
:1035D00021D13220285C01281DD1E88EFFB23900AC
:1035E000491C02F0D7FB0100142002F0C1FB694620
:1035F000C8806846C08800280DD06846C0880AF098
:10360000C7F90400E4B2002C05D072212000C0B23A
:10361000FFF767FA94E05620285C022816D13000A4
:103620003900C0B2C9B2884210D2F6B2002E0DD114
:10363000FA2040010AF084F90400E4B2002C05D01D
:103640007B212000C0B2FFF74CFA79E06846C078D1
:103650000AF01EF90400E4B2002C05D07421200009
:10366000C0B2FFF73EFA6BE05620285C022842D138
:1036700030003900C0B2C9B288423CD23100491C86
:10368000C9B22800FFF706FB03906B46039A31206E
:10369000295C2800FFF741FE0400E4B2002C05D0AD
:1036A0007A212000C0B2FFF71CFA49E06846007892
:1036B00000280FD10AF0A6F90400E4B2002C05D0CE
:1036C0007C212000C0B2FFF70CFA39E001206946E6
:1036D000887010E0F6B2FFB2781E86420BD10AF075
:1036E00091F90400E4B2002C05D07D212000C0B285
:1036F000FFF7F7F924E0761C1DE75620285C012827
:103700001DD13220285C012819D16846C0880028C4
:1037100015D068464078002811D10AF083F90400DA
:10372000E4B2002C0BD073212000C0B2FFF7D9F90E
:1037300006E068460078002801D17E2000E00020E5
:1037400007B0F0BDD4020020FEB504000F00160043
:10375000F6B2012E0DD10AF065F969460870684687
:103760000078002805D0982168460078FFF7B9F95D
:1037700025E0200000F09EF902905620205C0228EF
:1037800002D12220019001E019200190029A0199B2
:10379000012000F015F80500ADB2002D02D0280080
:1037A00080B20CE03A000121200000F04DF8050045
:1037B000ADB2002D02D0280080B200E00020FEBD96
:1037C000F8B507000E00140001200AF053FB0500B5
:1037D000EDB2002D05D0E0212800C0B2FFF781F93D
:1037E00031E020000AF0ACFC0500EDB2002D07D05E
:1037F0000AF0E8FBE0212800C0B2FFF772F922E0EE
:1038000030000AF0C5F80500EDB2002D07D00AF02F
:10381000D9FBE0212800C0B2FFF763F913E0FFB243
:10382000012F0FD101F011FB0500EDB2002D09D0E1
:103830000AF0C8FB0AF0D6F8E0212800C0B2FFF772
:1038400050F900E00020F2BDF3B587B01600002566
:103850000020694688700027002069468871002092
:103860006946487100206946487000206946087121
:1038700002A8102120F000FB00206946C87100203A
:103880006946087000206946C8706A4607980100BA
:10389000623102A80AF06AFC070068460078012835
:1038A0004AD108A80078012822D101A9C91C02A880
:1038B00001F0E6FB6946887068468078002802D0EF
:1038C000012005003AE06846C079012836D1002081
:1038D0000400E4B2082C08DA02A92000001DC0B2DE
:1038E000085CE4B23055641CF3E70120050025E0D4
:1038F00001206946C87000200400E4B20F2C0BDAE6
:10390000E4B2305D02A9E4B2095D884202D0002031
:103910006946C870641CF0E707986221415E6846FA
:10392000C0780AF08DF869464870684640780028EB
:1039300004D00120050001E001200500EDB2002DBA
:1039400002D1FFB2002FA0D00AF03CFB694688717B
:1039500068460078002803D00AF044F869464871A8
:1039600008A80078012803D101F071FA69460871AE
:1039700068468078002805D09A2168468078FFF74D
:10398000B0F837E0FFB2002F05D09A213800C0B25E
:10399000FFF7A7F82EE068468079002805D09A2125
:1039A00068468079FFF79DF824E068464079002852
:1039B00005D09A2168464079FFF793F81AE06846E7
:1039C0004078002805D09A2168464078FFF789F8AA
:1039D00010E068460079002805D09A2168460079F1
:1039E000FFF77FF806E068460078002801D19B20A9
:1039F00000E0002009B0F0BDF8B504000E0000277B
:103A000000255620205C042803D05620205C022884
:103A10000ED1F6B2022070432018008B5C21615A4F
:103A20004843050020684019A16D4908401A070065
:103A30005620205C01282ED1F6B2022070432018B7
:103A4000008F811F89B22000FEF7E4FF69460870ED
:103A50006020205A0500F6B2022070432018008F23
:103A6000401E062102F08EF9104841436D18F6B24F
:103A7000022070432018008B9621890041436D1865
:103A80002068401969460978094A51434018A16DD8
:103A90004908401A0700F6B2002E05D160684019A7
:103AA000A16D4908401A60613800F2BDA8610000AC
:103AB000E09304004069704738B5040001F0C5F98F
:103AC0000500EDB2002D05D099212800C0B2FFF706
:103AD00008F81BE0200001F0BCF90500EDB2002D54
:103AE00007D001F0B4F999212800C0B2FEF7F9FF20
:103AF0000CE001F0ACF90500EDB2002D05D09921E4
:103B00002800C0B2FEF7EDFF00E0002032BD00004B
:103B1000F1B581B00024002500206F463870DBB27B
:103B2000012B07D109200400234805000B206F4614
:103B3000387006E0062004007F20050007206F464D
:103B40003870684680880600B6B2002E00D12E007C
:103B500068468446B6B268460078471E3000384151
:103B60000700FF07FF0F6046877068468446B6B2BD
:103B7000671E300038410700FF07FF0F604647709F
:103B80007600684680786F467F784740002F02D0E5
:103B90003000012606432E401000370080B2BFB22D
:103BA000B842D1D330000F0080B2BFB2B842CBD3FD
:103BB000300080B2F6BD00BFFF070000F1B5002560
:103BC0000026340026001700F6B2FFB2BE4204D22F
:103BD0000026E4B20E55641CF4E7002634002600EB
:103BE0001700F6B2FFB2BE4237D280263000C0B214
:103BF000002830D0009EE4B2365D064216D0174E43
:103C0000DBB204275F43F619EDB2765D002E01D1D9
:103C1000012600E00026E4B20F5D46433E43E4B2D5
:103C20000E550F4EEDB2755DAD1C11E0E4B20F5DA7
:103C3000BC460A4FDBB204265E43BE19EDB2765D88
:103C4000464367463E43E4B20E55054EEDB2755D00
:103C5000C0B24008CBE7641CC1E7F1BD804C02084C
:103C60007C4C0208F0B5020000200024002633003E
:103C7000DBB2072B57DAC9B20E001E41F60750D54A
:103C80000026350006002F00F6B2FFB2BE4211D367
:103C9000E4B2002C0ED1804EDBB208275F43F65908
:103CA000EDB208276F43D759BE4201D10126340037
:103CB0006D1CE7E7E4B2012C1ED1EDB208266E437D
:103CC0009619361F3778BC46734FDBB208265E4321
:103CD000BE1936796746B7420BD06F4EDBB2082764
:103CE0005F43F6193679EDB208276F43D719FF1EE7
:103CF0003E700026340014E0674EDBB208275F43B5
:103D0000F659C0B208274743D651634EDBB20827A5
:103D10005F43F6193679C0B208274743D7193E7179
:103D2000401C5B1CA4E7C0B2F0BD10B50023190015
:103D3000C9B2052915DA0023C9B208244C4303513E
:103D400000231A00D2B2022A09DAC9B208234B436F
:103D5000C318D2B29B1800241C71521CF2E7491CF4
:103D6000E6E710BD00B502004C481060002901D004
:103D700018200870002000BD00B500220A61002252
:103D80004A6100220A76C0B200280CD002282BD04B
:103D900014D304281DD039D306285BD048D3082873
:103DA0006ED062D377E03E4A0A603E4A4A603E4A9D
:103DB0008A6001220A7304224A736CE03B4A0A605B
:103DC0003B4A4A60384A8A6002220A7301224A73D7
:103DD00061E0364A0A60374A4A60334A8A60022202
:103DE0000A7301224A7356E0334A0A60334A4A6032
:103DF000334A8A6001220A7302224A732E4A0A61F8
:103E0000304A4A614F22D2430A7644E02A4A0A6085
:103E10002A4A4A60244A8A6001220A7302224A73AB
:103E2000254A0A61274A4A614F22D2430A7632E084
:103E3000254A0A601F4A4A601B4A8A6001220A73A7
:103E400002224A73204A0A611E4A4A614022D24332
:103E50000A7620E01D4A0A601D4A4A60124A8A60BA
:103E600001220A7304224A7315E01A4A0A601A4AA8
:103E70004A600D4A8A6001220A7304224A730AE0EA
:103E8000164A0A60164A4A60164A8A6001220A7374
:103E900004224A73FFE700BD000000208C4C02089A
:103EA000D09CBE3308E6D33300EE0200C07AC6359C
:103EB0008041F435602EF93600EA0637C0A7F736A0
:103EC000A08C0000400D0300A070083780E79133FC
:103ED00060B0A23300D6C833E069CD3324C21A04DF
:103EE000748E5804D430000030B501000022002048
:103EF00000252B00DBB2032B1DDAD2B2002A1AD127
:103F000000252C00E4B2202C13DAD2B2002A10D102
:103F1000DBB204255D434D59E540ED0707D501258A
:103F20002A00DBB220255D43E4B22D192800641C71
:103F3000E8E75B1CDEE7C0B230BD38B50400002501
:103F4000E4B2200009F024FD0500EDB2002D02D0FE
:103F50002800C0B20AE009F065FD0500EDB2002DB1
:103F600002D02800C0B201E02800C0B232BD38B58E
:103F700000240025122009F00BFD0500EDB2002DF4
:103F800005D0EDB22902CD20084380B21AE001200D
:103F9000FEF78AFA0400A4B2002C06D009F022FD34
:103FA000FEF7FBF9200080B20CE009F03BFD0500B4
:103FB000EDB2002D05D0EDB22902CD20084380B22C
:103FC00000E0002032BDF1B584B0002600240025B9
:103FD00000200500EDB20C2D06DA2800403001A9C2
:103FE000EDB248556D1CF5E7002007003800694622
:103FF000097CC0B2884200D3A8E0122009F0C8FCB6
:104000000400E4B2002C05D0E4B22102C22008432F
:1040100080B29CE00023022200210020FEF70FFA6C
:104020000600B6B2002E04D009F0DCFC300080B2ED
:104030008DE009F0F7FC0400E4B2002C05D0E4B2F6
:104040002102C220084380B281E0122009F0A0FCC6
:104050000400E4B2002C05D0E4B22102C3200843DE
:1040600080B274E00023022200210120FEF7E7F96C
:104070000600B6B2002E04D009F0B4FC300080B2C5
:1040800065E009F0CFFC0400E4B2002C05D0E4B2F6
:104090002102C320084380B259E0122009F078FCC5
:1040A0000400E4B2002C05D0E4B22102C42008438D
:1040B00080B24CE00020FEF7F7F90600B6B2002E01
:1040C00004D009F08FFC300080B240E009F0AAFC77
:1040D0000400E4B2002C05D0E4B22102C42008435D
:1040E00080B234E001200500EDB20D2D2CDA122053
:1040F00009F04EFC0400E4B2002C05D0E4B2210229
:10410000C620084380B222E0002000900223002253
:104110002900C9B201A8FEF75DF90600B6B2002E6B
:1041200004D009F05FFC300080B210E009F07AFCA6
:104130000400E4B2002C05D0E4B22102C6200843FA
:1041400080B204E06D1CCFE77F1C4FE7002005B074
:10415000F0BD70B504000D00002028602000FEF7BF
:104160000FF80600B6B2002E02D0300080B22FE069
:10417000607B022806D100218648FEF711FA06006E
:1041800084482860607B01280BD16068824988429E
:1041900007D100218148FEF703FA06007F48286016
:1041A0000DE0607B01280AD160687D49884206D114
:1041B00000217C48FEF7F4F906007A482860B6B280
:1041C000002E04D0FEF7E9F8300080B200E00020B5
:1041D00070BD0120744908700020704770B504005C
:1041E0000D00160002207049087070480570704874
:1041F00004607048068070480068002802D06E484D
:1042000000688047002070BDFBB582B017000B9E90
:104210000C9D002069460870042009F02BFE040064
:10422000E4B2002C05D0E4B22102CE20084380B2D3
:1042300073E0624A0AA801786846008A00F0DEFF4F
:104240000400E4B2002C05D0E4B22102CE200843E1
:1042500080B262E0002054490870B14B3A00D2B2FB
:104260006846017B029800F0F5FF0400E4B2002CE0
:1042700005D0E4B22102CE20084380B24DE0A94827
:104280000068002803D0A7480068804703E046483C
:1042900000780028FBD001F050F80400E4B2002CB4
:1042A00005D0E4B22102CE20084380B235E03E487A
:1042B0000078022820D10020694608703B48007829
:1042C0002900C9B2884206D139480068B04202D1FB
:1042D00001206946087037480021415E6846007831
:1042E00009F0AEFB0400E4B2002C05D0E4B22102D8
:1042F000CE20084380B210E02B4800780128A9D1D5
:1043000009F060FE0400E4B2002C05D0E4B2210202
:10431000CE20084380B200E0002005B0F0BDF8B523
:1043200004000F00002603201F49087000207E496A
:104330000870E4B2002C14D000200500EDB2072D67
:104340000FDAF6B2002E0CD1E4B220002841C007EB
:1043500005D5012006002800401C734908706D1C1B
:10436000ECE772487049097802225143405A401CD8
:104370006E496D4A127802235A4388520D480780CD
:104380000D480068002802D00B48006880470020D4
:10439000F2BD0000500000208041F43538000020BC
:1043A000602EF93644000020EC020020F4020020C8
:1043B000F0020020F602002000030020D341000894
:1043C000FBB584B0170000200599086000200400A8
:1043D000E4B2082C07DA00205449E4B20222624316
:1043E0008852641CF4E700200400E4B20C2C05DAC7
:1043F000002001A9E4B20855641CF6E7002005007E
:104400002800390080B289B2884200D384E00020BD
:104410004749087044480078694608714348424952
:10442000097802225143405A80B2000A01A948701B
:104430003E483D49097802225143405A01A98870FB
:104440003C480021405E80B2000A01A9C87039488A
:10445000008801A90871ADB2BFB2781E854203D1B0
:10446000252001A9487109E0ADB2002D03D1242017
:1044700001A9487102E0002001A94871059904983A
:10448000FFF767FE0600B6B2002E02D0300080B201
:1044900043E000230C2201A90020FEF73DF90600AD
:1044A000B6B2002E04D0FDF778FF300080B234E0C1
:1044B000FDF773FF0600B6B2002E02D0300080B2C6
:1044C0002BE0ADB2BFB2781E854223DA1A4B01222F
:1044D00004216846007E01F06FF90600114800686B
:1044E000002803D00F480068804703E01048007898
:1044F0000028FBD00620FFF720FD694608706846BB
:104500000078002806D0684600780102CE200843D3
:1045100080B202E06D1C73E7002007B0F0BD000020
:10452000DD410008FC020020F8020020DC0200202F
:10453000EC020020F60200201F430008F3B597B0FC
:104540000025002600206946C880002069460871C1
:10455000002069468881002069464881002069461C
:10456000088107A80021016017A80078092801DB4D
:10457000CA205BE20BA917A80078FFF7FDFB08A98A
:104580000BA8FFF7E6FD0500ADB2002D02D0280014
:1045900080B24BE218A80078002815D0012800D17D
:1045A000A5E0022800D1C9E0032800D123E10428B6
:1045B00000D146E1052800D1DBE1062861D00B28B7
:1045C00040D00D286AD023E200200400E4B20C2C75
:1045D00005DAAA2004A9E4B20855641CF6E70B9892
:1045E00007000BA8407B012806D10898FFF77CFC48
:1045F000884948433818070000200400E4B2032C1F
:104600001FDA00230C2204A93800FEF785F8050004
:10461000ADB2002D04D0FDF7C0FE280080B205E247
:104620000120FFF78AFC0600F6B2002E07D0FDF746
:10463000B4FEF6B23102C720084380B2F6E1641C32
:10464000DCE7E9E10023022200210020FDF7F7FE6C
:104650000500ADB2002D04D0FDF79FFE280080B20A
:10466000E4E10023022200210120FDF7E8FE05001D
:10467000ADB2002D04D0FDF790FE280080B2D5E148
:10468000CAE10720FFF79FFC0500ADB2002D04D062
:10469000FDF783FE280080B2C8E1BDE107A809F05C
:1046A0003AF90600F6B2002E07D0FDF776FEF6B214
:1046B0003102D020084380B2B8E16846007F6946E5
:1046C000087407A8407804A94870002000900223CD
:1046D0000022022104A8FDF77DFE0500ADB2002DE9
:1046E00004D0FDF75AFE280080B29FE194E1FFF765
:1046F0003EFC0500ADB2002D13D0280080B2000AA8
:1047000080B249280AD108A90BA8FFF722FD0500AD
:10471000ADB2002D05D0280080B287E1280080B21C
:1047200084E10120FFF74FFC0500ADB2002D04D05D
:10473000FDF733FE280080B278E16DE1002004002F
:10474000E4B20C2C06DA2000403004A9E4B208558B
:10475000641CF5E701200090022309AA0C2104A89B
:10476000FDF738FE0500ADB2002D04D0FDF715FEB3
:10477000280080B25AE1012069460871012069468B
:10478000087400200400E4B2082C13DA68460079AB
:1047900001280FD109A8E4B2015DE4B22000303055
:1047A000814205D0002069460871002069460874DE
:1047B000641CE8E700216846007909F041F9060029
:1047C000F6B2002E07D0FDF7E8FDF6B23102C120A7
:1047D000084380B22AE10023012204A90020FDF74A
:1047E0009BFF0500ADB2002D04D0FDF7D6FD2800DB
:1047F00080B21BE110E10C98070000200400E4B235
:104800000F2C09DA8A48E4B2005D12A9E4B2085517
:10481000641CF4E7E093040002A800901E2312AA8F
:1048200000213800FDF7F4FF0500ADB2002D07D0E0
:10483000ADB29B2D04D0FDF7B0FD280080B2F5E0AD
:10484000EAE000200400E4B20C2C05DA002004A900
:10485000E4B20855641CF6E700206946C880684643
:10486000C088FF212E31884200DB81E06846C08885
:1048700096214900884203D1232004A9C87102E08F
:10488000002004A9C87101230C2204A90020FDF70F
:1048900043FF0500ADB2002D04D0FDF77EFD2800DA
:1048A00080B2C3E002A80090042312AA01210020D4
:1048B000FDF7AEFF0500ADB29B2D08D168466946F5
:1048C0008989491C818100206946087110E0ADB2D8
:1048D000002D08D1684669464989491C418101205B
:1048E0006946087104E0FDF758FD280080B29DE09C
:1048F000029909B26846007909F0A2F80600F6B2FA
:10490000002E07D0FDF749FDF6B23102C120084361
:1049100080B28BE06846408980B2000A04A98870A2
:104920006846408904A9C870029800B2643004A99E
:1049300008716846808980B2000A04A948716846F7
:10494000808904A988710620FFF7F7FA0600F6B2FD
:10495000002E07D0FDF721FDF6B23102C820084332
:1049600080B263E068466946C988491CC18076E721
:1049700052E00B9807000BA8407B012806D108984D
:10498000FFF7B2FAA4494843381807000020040092
:10499000E4B2092C3BDA092008F0FAFF0600F6B26F
:1049A000002E07D0FDF7F9FCF6B23102C92008430A
:1049B00080B23BE06437380069460874380A04A9BD
:1049C00048703800000C04A98870380E04A9C8701B
:1049D0000023042204A93800FDF79EFE0500ADB2B5
:1049E000002D04D0FDF7D9FC280080B21EE009F0AC
:1049F00019F80600F6B2002E07D0FDF7CEFCF6B28D
:104A00003102C920084380B210E0641CC0E703E013
:104A1000FDF7C3FCCC2009E0FDF7BFFC0500ADB2FB
:104A2000002D02D0280080B200E0002019B0F0BDB7
:104A3000A44C020880B5002300930023D2B2C9B26F
:104A4000C0B200F001F802BDFEB598B00700002426
:104A500000261A98002809D02098002806D01A9815
:104A60006E49086020986E49086005E000206B4997
:104A7000086000206A490860FFB2092F02DAFFB21D
:104A8000082F01D1CA20C5E010A93800C0B2FFF735
:104A900073F9FFB2002F0BD0022F12D00BD3042FCB
:104AA0000CD00ED3062F12D00ED3072F12D014E045
:104AB0000020050013E00120050010E003200500A0
:104AC0000DE0022005000AE00420050007E00520B3
:104AD000050004E00620050001E00720050018A8F5
:104AE0000078072801DACF2094E018A8007807287A
:104AF00007D000D28BE009286AD02FD30A2876D0BD
:104B000085E068464749EDB208226A438918097969
:104B100001734448EDB2082169434058049006A847
:104B2000FFF703F919A8017806A8FFF79BF806001C
:104B30006846007B029004980190012000901E239B
:104B400000223100C9B206A8FFF75EFB0400A4B240
:104B5000002C02D0200080B25CE05AE06846314967
:104B6000EDB208226A438918497901732D48EDB2E4
:104B7000082169434058049006A8FFF7D6F80120A1
:104B800006002848EDB208216943405806902548A0
:104B9000EDB2082169434018407906A90871002048
:104BA00006A948716846007B029004980190012094
:104BB00000901E2301223100C9B206A8FFF724FB92
:104BC0000400A4B2002C02D0200080B222E020E039
:104BD00019A803780B2205A910A8FFF7F1FB040020
:104BE000A4B2002C02D0200080B213E011E019A87A
:104BF0000378FF222E3205A910A8FFF7E1FB04007D
:104C0000A4B2002C02D0200080B203E001E0CC204E
:104C100000E000201BB0F0BDE0930400FC02002087
:104C20000003002000000020F1B58AB00026112A00
:104C300001DB022000E0012005011D70002501912B
:104C400069460A701A78E9B291420FD20199895DDA
:104C500002AAEFB2D15569460978491E8E4202D0A8
:104C6000761CF6B200E000266D1CEBE70A9B020002
:104C700002A918001FF07AF80CB0E0BDF7B58AB0B1
:104C80001E00139C149D159F684609F05BFB0B21C9
:104C9000681D1FF0F1F8E078C0012871A078C0010C
:104CA000E17849080143E9706078C001A1784908BA
:104CB0000143A9702078C0016178490801436970F7
:104CC000207840088021014329700122290002A890
:104CD0001FF04CF802A8017BFE220A400273310942
:104CE0004173002F02D110220A43427312993201FC
:104CF0000B051B0F13438373C173E078C001287148
:104D0000A078C001E17849080143E9706078C001EA
:104D1000A17849080143A9702078C0016178490849
:104D200001436970207840082870012128001FF095
:104D300069F8012202A906A81FF04CF800220A987F
:104D40000B990CAB1B7805E006ACA45C8D5C654050
:104D50008554521C9A42F7DB0DB0F0BD0822212386
:104D600003404108202B01D0012B02D180204000BC
:104D700000E000200843521EF1D180B27047FEB51A
:104D800005000C00684609F0DDFAB8492278607821
:104D9000000210436A4612885043084000D10800C0
:104DA0000026FFF7DBFF721CA9190B780700D7401C
:104DB0005F400F70691C89190F78012393405B1EB7
:104DC00003409C4607239A1B634693407B400B702D
:104DD000761C082EE5DB0026FFF7C0FF721CA91920
:104DE0004B7A0700D7405F404F728F7A0123934080
:104DF0005B1E03409C4607239A1B634693407B40FF
:104E00008B72761C052EE7DBFFF7A8FFA97B761CCB
:104E1000F0404840A8730020E873F7BD70B5050066
:104E20000E001FF00FF80200914C92A120000A30F2
:104E30001FF032F9002E01D1472070BD2C600A30DE
:104E40003070002070BD00207047002070470020A7
:104E5000704780B51EF0FAFF002002BD80B51EF03D
:104E6000FFFF002002BDF1B598B00D0014001F0037
:104E700002200F9010A820211EF0FEFF0AA8142186
:104E80001EF0FAFF06A809F05DFA6846068B06A830
:104E90004088099006A800796946487409F06EFABE
:104EA0000090012F05D1002801D14920DCE0052523
:104EB0000024761C3005000D0890009801281AD1B6
:104EC0000898002804D16846407C401C6946487414
:104ED000380010D1089800280BD0099800280AD073
:104EE00008980999491C00F063FF491E8941C90FC0
:104EF00002E0012100E000211E98017060012021E4
:104F000008402E001F9C07D1189909788901084391
:104F100080210143217023E0012D01D100210BE00C
:104F2000691E0422521B4B109B0F591889108900CF
:104F300051188A1CD2B20F92890108432070189828
:104F400000280DD00021A31D02E0425C5A54491CE8
:104F5000A942FADB1890012F02D16846407CA0726A
:104F60002078F021014008980004000E08432070CA
:104F70000898607005A81EF069FF0020A21C05A912
:104F8000095C1154401C0428F9DB0098012822D147
:104F9000002F20D103900AA8029005A8019008983C
:104FA00080B200906846437C2A001899A01DFFF744
:104FB00065FE0AA86946497C01700021431C625CB9
:104FC0005A54491CC9B2AA1D9142F8DB04ABEA1D30
:104FD000D2B20AA903E004ABAA1DD2B2210010A8E4
:104FE000FFF722FE00210F980AE010AA6B461B7CF7
:104FF0005B18D218103A1278A31D6F18DA55491CA5
:105000008142F2DB209A2B189B1D13700021002691
:105010000FE0080009E0205C0002484080B2082749
:1050200041000004F5D5144848407F1EF8D1010026
:10503000761CF0B2DFB2B842EDD31048484080B2DF
:10504000010ADBB2E154611C1378C8541078801D4A
:10505000107006A808990180099941806946497C29
:10506000017109F079F9002019B0F0BDFF010000CD
:105070005C0000202573000021100000FFFF0000ED
:10508000F2B590B0070006A809F05CF906A80188FF
:105090006A46D182007969460875002510990D701D
:1050A00004A81EF0D3FE04A93800FFF768FE002014
:1050B00001260021002200BF42A39B5CBC5CC440CF
:1050C000344063434B401900521C0E2AF3DD00BFED
:1050D00040A2C9B2515C79180A7801238340534039
:1050E0000B70401C0828E4DB002000213A1DCBB2E5
:1050F000D25C5040C0B208224300000602D52F20E7
:10510000584000E01800521EF6D1491CCAB20A2AC3
:10511000ECD3B97BC0B281423FD108AC04A801787E
:105120002170417861708278A270C278E2706A461C
:10513000D28A22716A46D28A120A627100223D0026
:105140002B1D9B5CA718BB71521C082AF8DB00784A
:10515000A073E173012208A908A81EF007FE287BAE
:105160002178884219D1687B6178884215D11098DE
:10517000067009F003F901280FD10020039008A858
:10518000029004A801906846C08A00906846037D9A
:105190000822291D281DFFF771FD002011B0F0BD68
:1051A0001CB5040009F0EAF8002801D1482016BD1A
:1051B000684609F0C7F86846448009F0CDF8002039
:1051C00016BD00000102040803060C0B050A070EB9
:1051D0000F0D09000F0001040208050A030E09075C
:1051E000060D0B0CFF22F632904201DB8020704747
:1051F000B4480860002070470020704710B51300C5
:105200000024002905D0022909D004D3032909D09C
:105210000CE002000BE00200FA20800004E0020033
:10522000A94801E00200A948424300E08224180096
:1052300009D0A7480360200003D1A649100008F058
:1052400021FD200010BD8224FBE780B508F03EFD63
:10525000002002BDFEB582B0010000250022684694
:10526000007A00E0521C8242FCDB072801DB84202C
:1052700061E0994C6560A56000220CE0D300E6185F
:1052800082277F00F619CB181F6837601F793771A6
:105290005B797371521C0600B242EFDB01910499F5
:1052A0006A46127B9A235B00E718386020009C3026
:1052B00000900560B9603A7101231022A4204000DB
:1052C000211820000C3000F020F902230D22C42008
:1052D0004000211820003C3000F017F903230B2276
:1052E000DE204000211820006C3000F00EF925600F
:1052F000002201980BE011016118A43180231B06E4
:105300000B608D600D71D300C358CB60521CB2424C
:10531000F1DB3D61714808F017FC82204000201845
:1053200000990968C900405808F078FC08F066FC4C
:1053300008F082FC002005B0F0BD80B56848006828
:10534000012803D108F068FC08F03AFC002002BDF7
:10535000D5A20260002901D1862070470E20087076
:1053600000207047FEB501005B4C2068401C2060A7
:1053700020000C3000F002F92068FF21383188420B
:1053800000D09EE06068401C60600025256084209D
:1053900040002618001F20180290481C2018019079
:1053A00020009C3000902000A43000990968090179
:1053B000411820000C3000F002F9002874D1019847
:1053C0000078002846D1A068002801D16068A0605C
:1053D000F16A6068A268801A884269D38022120646
:1053E00000200BE00301E318A4339F68002F04D0D2
:1053F0001B689A4201DA05001A00401C8842F1DB62
:1054000000984560E80020188221490047182801CB
:105410002518A43538792979884204D0787900286C
:105420000ED088420CD108F00BFC2B683A68297921
:10543000002008F009FC2A6812B22979386830E0A7
:1054400020000C3000F080F8F26A0299009800F019
:1054500049F829E00098007B3178814204D07178C6
:10546000002921D081421FD101200199C86008F094
:10547000E7FB0098006801016118A4310B68029AEB
:10548000C00012580979012008F0DEFB009800687E
:1054900001016118A4310A6812B20979029BC000A7
:1054A0001858019B5B68984701980078002804D140
:1054B000F26A0299009800F015F820000C3000F014
:1054C00043F8F7BD0403002060EA000080EE3600D8
:1054D0003806002085560008F804002065530008AF
:1054E0003C06002070B504000D00160008F094FB87
:1054F0002068401CB04200D100202060C000285825
:1055000008F08CFB08F07AFB70BD38B5040015007C
:105510006160256024202354FF203830290000F0EA
:1055200039FC6843A0610020E061A0608021090689
:10553000E1600021C9432161606120622A000021ED
:10554000606800F0A9F831BD70B5002500240600A0
:10555000302060433018856080210906C160002139
:10556000C94301614561C561056202680021406867
:1055700000F092F8641C032CEADB70BD70B50022C9
:10558000002330245C430419E569A669B54212DAA8
:105590006D1CE561A5686E1CA6606668AD00751996
:1055A0002E6876182E60A5682668B54203D1A260E1
:1055B00065696D1C65615B1C032BE2DB70BDF3B597
:1055C00083B0002002900025002080242406039947
:1055D00030226A438E183168002208E07368970011
:1055E000DB59C0189C4201DA1C003261521C8A420D
:1055F000F4DB001B0190491E0091012708467169E8
:105600004843810008180199401800996143884275
:1056100011DA37622000716900F0BCFBF0602000F5
:10562000716900F0B7FBB06201987169009A51434B
:1056300000F0B0FBF0626D1C022DC5DD0398006A1E
:105640000399096D40180399802289584018012850
:1056500012D100220499039830235343C3181C6AC3
:10566000002C05D0DC680C6024241B5D0B718F605E
:10567000521C022A03DCEFE70020C043029002988C
:1056800005B0F0BD80B50348012141600068804746
:1056900001BD000038060020002A02E00160001D64
:1056A000521EFBD1704700004D4E5F4150495F567E
:1056B000322E302E3100000010B500231900C9B27F
:1056C000052915DA0023C9B208244C4303510023ED
:1056D0001A00D2B2022A09DAC9B208234B43C3180E
:1056E000D2B29B1800241C71521CF2E7491CE6E759
:1056F00010BDF0B502000020002400263300DBB20C
:10570000072B57DAC9B20E001E41F60750D5002606
:10571000350006002F00F6B2FFB2BE4211D3E4B24C
:10572000002C0ED1854EDBB208275F43F659EDB24F
:1057300008276F43D759BE4201D1012634006D1CA2
:10574000E7E7E4B2012C1ED1EDB208266E439619AC
:10575000361F3778BC46794FDBB208265E43BE1948
:1057600036796746B7420BD0744EDBB208275F43E9
:10577000F6193679EDB208276F43D719FF1E3E7030
:105780000026340014E06D4EDBB208275F43F65963
:10579000C0B208274743D651684EDBB208275F43A3
:1057A000F6193679C0B208274743D7193E71401C15
:1057B0005B1CA4E7C0B2F0BDF3B581B017001E00BA
:1057C00000255F480078002801D0B2206DE030004D
:1057D000002801D1B42068E05A493420FFF702FDC7
:1057E000040058480068002802D0E4B2002C05D01C
:1057F000B3212000C0B2FDF774F956E051480068AB
:10580000066306204E49087000204F49087068461C
:1058100000794C49096808704A480068001DFFF784
:105820004BFF0020474909682C22885445480068EE
:10583000017844480068001DFFF75BFF0500042065
:1058400008F018FB0400E4B2002C05D0B3212000BE
:10585000C0B2FDF746F928E03C4A3900C9B26846B3
:105860000089FFF7CBFC0400E4B2002C05D0B32183
:105870002000C0B2FDF735F917E0354B00222900B2
:10588000C9B230480068001DFFF7E4FC0400E4B230
:10589000002C09D008F096FBFFF7D7FCB3212000BD
:1058A000C0B2FDF71EF900E00020FEBD10B524488F
:1058B0000078062805D022480078072801D0B520B6
:1058C0003BE0FFF73AFD0400E4B2002C09D008F0F9
:1058D00079FBFFF7BAFCB6212000C0B2FDF701F951
:1058E0002BE0FFF7B2FC0400E4B2002C07D008F074
:1058F00069FBB6212000C0B2FDF7F3F81DE008F007
:1059000061FB0400E4B2002C05D0B6212000C0B237
:10591000FDF7E7F811E00B480068FFF76DFC0400A5
:10592000E4B2002C05D0B6212000C0B2FDF7D9F8B2
:1059300003E0002002490870002010BD7C00002018
:10594000D0020020E0060020D1020020AF5900085C
:10595000595A000870B50300002000252C00E4B25D
:10596000072C22DAC0B200281FD13A4DE4B2082633
:105970006643AD599D4216D1364DE4B208266643C2
:10598000AD192D790E00F6B2B5420CD1314DE4B20D
:1059900008266643AD196D791600F6B2B54202D1FC
:1059A0000125A5402800641CD9E7C0B270BD10B520
:1059B000BA480078062805D0B8480078072801D0F2
:1059C000B72046E0B6480078401CB5490870FFF79C
:1059D000B4FC0400E4B2002C09D008F0F3FAFFF79D
:1059E00034FCB8212000C0B2FDF77BF831E0FFF7AE
:1059F0002CFC0400E4B2002C07D008F0E3FAB82134
:105A00002000C0B2FDF76DF823E008F0DBFA0400D7
:105A1000E4B2002C05D0B8212000C0B2FDF761F837
:105A200017E0002100209F4A1268126B90479D48A2
:105A30000068FFF7E1FB0400E4B2002C05D0B821B8
:105A40002000C0B2FDF74DF803E000209349087034
:105A5000002010BD7C000020F5B581B00F000025AE
:105A60000020694688700020694608700020694659
:105A700048708A480078062805D0884800780728AA
:105A800001D0B92008E100200400E4B2052C2BDA93
:105A900068460078002827D182480068E4B20821CF
:105AA000614340184068019988421BD10120694632
:105AB00008707C480068E4B2082161434018007A0D
:105AC0003900C9B288420AD076480068E4B2082199
:105AD00061434018407A3900C9B2884202D101209E
:105AE00069464870641CD0E768460078002805D1F4
:105AF00008F068FAFFF7A9FBBC20CDE068464078C3
:105B0000002805D108F05EFAFFF79FFBBB20C3E039
:105B100063480078401C62490870FFF70EFC0600DD
:105B2000F6B2002E09D008F04DFAFFF78EFBBA212D
:105B30003000C0B2FCF7D5FFAEE0FFF786FB0600F1
:105B4000F6B2002E07D008F03DFABA213000C0B2FC
:105B5000FCF7C7FFA0E051480078062862D1072073
:105B60004E490870504A0021C8204000FFF746FB0C
:105B70000600F6B2002E07D008F024FABA21300051
:105B8000C0B2FCF7AEFF87E046480068001DFFF793
:105B900093FD00200400E4B2072C29DA4348E4B264
:105BA000082161434058019988421FD13F48E4B21F
:105BB00008216143401800793900C9B2884215D1E3
:105BC0003848006800782041C0070FD50198354952
:105BD000096848603548E4B20821614340184079BB
:105BE00030490968EDB2491908726D1C641CD2E78E
:105BF0002C4800682C2147542D4B012201212948B3
:105C00000068001DFFF726FB0600F6B2002E42D00A
:105C100008F0D8F9FFF719FBBA213000C0B2FCF741
:105C200060FF39E01D480078072834D108F0CAF930
:105C30000600F6B2002E05D0BA213000C0B2FCF743
:105C400050FF29E03A00D2B2164800682C21415C8E
:105C50000198FFF77FFE69468870002011490968A6
:105C60002C228854029909B2684680780D4A12683D
:105C7000126B90470B480068FFF7BEFA0600F6B2B9
:105C8000002E05D0BA213000C0B2FCF72AFF03E095
:105C90000020024908700020FEBD0000D002002054
:105CA000D1020020E0060020AF5900087C0000204F
:105CB000595A0008034613F8012B002AFBD1181A81
:105CC00001387047000000000000000000000000E4
:105CD00001F0FF01102A2BDB10F0070F08D010F89D
:105CE000013B013A8B422DD010F0070F42B3F6D1A1
:105CF000F0B441EA012141EA014122F007047FF0BA
:105D000000070023F0E80256083C85EA010586EA10
:105D1000010685FA47F5A3FA87F586FA47F6A5FA4C
:105D200087F68EB9EED1F0BC01F0FF0102F0070258
:105D300032B110F8013B013A83EA010313B1F8D103
:105D40000020704701387047002D06BF35460338E4
:105D5000073815F0010F07D1013015F4807F02BF1D
:105D6000013015F4C03F0130F0BC0138704700BF6E
:105D7000002902D0B0FBF1F0704708B14FF0FF30BE
:105D800000F01EB80029F8D00246B0FBF1F000FB8D
:105D900011217047002902D090FBF1F070470028D4
:105DA000C8BF6FF00040B8BF4FF0004000F008B827
:105DB0000029F4D0024690FBF1F000FB112170475E
:105DC000704700BF81F0004102E000BF83F0004354
:105DD00030B54FEA41044FEA430594EA050F08BF86
:105DE00090EA020F1FBF54EA000C55EA020C7FEA4A
:105DF000645C7FEA655C00F0E2804FEA5454D4EBC7
:105E00005555B8BF6D420CDD2C4480EA020281EA90
:105E1000030382EA000083EA010180EA020281EAC8
:105E20000303362D88BF30BD11F0004F4FEA01311A
:105E30004FF4801C4CEA113102D0404261EB410129
:105E400013F0004F4FEA03334CEA133302D05242AF
:105E500063EB430394EA050F00F0A780A4F101046B
:105E6000D5F1200E0DDB02FA0EFC22FA05F28018A5
:105E700041F1000103FA0EF2801843FA05F359418B
:105E80000EE0A5F120050EF1200E012A03FA0EFC0A
:105E900028BF4CF0020C43FA05F3C01851EBE37134
:105EA00001F0004507D54FF0000EDCF1000C7EEB51
:105EB00000006EEB0101B1F5801F1BD3B1F5001F8F
:105EC0000CD349085FEA30004FEA3C0C04F10104AE
:105ED0004FEA445212F5800F80F09A80BCF1004FD7
:105EE00008BF5FEA500C50F1000041EB045141EA59
:105EF000050130BD5FEA4C0C404141EB0101013C22
:105F000028BFB1F5801FE9D291F0000F04BF014610
:105F10000020B1FA81F308BF2033A3F10B03B3F1E2
:105F200020020CDA0C3208DD02F1140CC2F10C0272
:105F300001FA0CF021FA02F10CE002F11402D8BFD0
:105F4000C2F1200C01FA02F120FA0CFCDCBF41EA9C
:105F50000C019040E41AA2BF01EB0451294330BD6B
:105F60006FEA04041F3C1CDA0C340EDC04F1140448
:105F7000C4F1200220FA04F001FA02F340EA03001F
:105F800021FA04F345EA030130BDC4F10C04C4F165
:105F9000200220FA02F001FA04F340EA0300294645
:105FA00030BD21FA04F0294630BD94F0000F83F48F
:105FB000801306BF81F480110134013D4EE77FEA72
:105FC000645C18BF7FEA655C29D094EA050F08BFBE
:105FD00090EA020F05D054EA000C04BF194610469F
:105FE00030BD91EA030F1EBF0021002030BD5FEAE3
:105FF000545C05D14000494128BF41F0004130BD0B
:1060000014F580043CBF01F5801130BD01F000455E
:1060100045F0FE4141F470014FF0000030BD7FEAD1
:10602000645C1ABF194610467FEA655C1CBF0B46CC
:10603000024650EA013406BF52EA033591EA030FE3
:1060400041F4002130BD00BF90F0000F04BF0021DB
:10605000704730B54FF4806404F132044FF000050E
:106060004FF0000150E700BF90F0000F04BF002187
:10607000704730B54FF4806404F1320410F00045ED
:1060800048BF40424FF000013EE700BF42004FEAE8
:10609000E2014FEA31014FEA02701FBF12F07F4365
:1060A00093F07F4F81F06051704732F07F4208BF1C
:1060B000704793F07F4F04BF41F40021704730B523
:1060C0004FF4607401F0004521F000411CE700BF6F
:1060D00050EA010208BF704730B54FF000050AE0F2
:1060E00050EA010208BF704730B511F0004502D5F3
:1060F000404261EB41014FF4806404F132045FEAF5
:10610000915C3FF4D8AE4FF003025FEADC0C18BF9D
:1061100003325FEADC0C18BF033202EBDC02C2F18F
:10612000200300FA03FC20FA02F001FA03FE40EA21
:106130000E0021FA02F11444BDE600BF4FF0FF3C0F
:1061400006E000BF4FF0010C02E000BF4FF0010C71
:106150004DF804CD4FEA410C7FEA6C5C4FEA430CEA
:1061600018BF7FEA6C5C1BD001B050EA410C0CBF39
:1061700052EA430C91EA030F02BF90EA020F00209B
:10618000704710F1000F91EA030F58BF994208BF02
:1061900090422CBFD8176FEAE37040F001007047BF
:1061A0004FEA410C7FEA6C5C02D150EA013C07D116
:1061B0004FEA430C7FEA6C5CD6D152EA033CD3D061
:1061C0005DF8040B704700BF8446104662468C465B
:1061D0001946634600E000BF01B5FFF7B7FF00288E
:1061E00048BF10F1000F01BD4DF808EDFFF7F4FFB7
:1061F0000CBF012000205DF808FB00BF4DF808ED42
:10620000FFF7EAFF34BF012000205DF808FB00BF64
:106210004DF808EDFFF7E0FF94BF012000205DF886
:1062200008FB00BF4DF808EDFFF7CEFF94BF01203B
:1062300000205DF808FB00BF4DF808EDFFF7C4FF34
:1062400034BF012000205DF808FB00BF4FEA410287
:1062500012F5001215D211D56FF47873B3EB6252B8
:1062600012D94FEAC12343F0004343EA505311F0DF
:10627000004F23FA02F018BF404270474FF0000071
:10628000704750EA013005D111F0004008BF6FF0AF
:10629000004070474FF00000704700BF80F00040A2
:1062A00002E000BF81F0004142001FBF5FEA4103EE
:1062B00092EA030F7FEA226C7FEA236C6AD04FEAEE
:1062C0001262D2EB1363C1BFD21841404840414033
:1062D000B8BF5B42192B88BF704710F0004F40F4E5
:1062E000000020F07F4018BF404211F0004F41F401
:1062F000000121F07F4118BF494292EA030F3FD0CD
:10630000A2F1010241FA03FC10EB0C00C3F12003DF
:1063100001FA03F100F0004302D5494260EB40006E
:10632000B0F5000F13D3B0F1807F06D340084FEAD9
:10633000310102F10102FE2A51D2B1F1004F40EBCE
:10634000C25008BF20F0010040EA03007047490036
:1063500040EB0000013A28BFB0F5000FEDD2B0FAD3
:1063600080FCACF1080CB2EB0C0200FA0CF0AABFF6
:1063700000EBC25052421843BCBFD0401843704794
:1063800092F0000F81F4000106BF80F4000001329A
:10639000013BB5E74FEA41037FEA226C18BF7FEA71
:1063A000236C21D092EA030F04D092F0000F08BFB3
:1063B0000846704790EA010F1CBF0020704712F09A
:1063C0007F4F04D1400028BF40F00040704712F1D9
:1063D00000723CBF00F50000704700F0004343F03E
:1063E000FE4040F4000070477FEA226216BF084674
:1063F0007FEA23630146420206BF5FEA412390EA37
:10640000010F40F4800070474FF0000304E000BF2C
:1064100010F0004348BF40425FEA000C08BF7047DD
:1064200043F0964301464FF000001CE050EA0102A1
:1064300008BF70474FF000030AE000BF50EA0102B6
:1064400008BF704711F0004302D5404261EB4101A3
:106450005FEA010C02BF84460146002043F0B643C8
:1064600008BFA3F18053A3F50003BCFA8CF2083AED
:10647000A3EBC25310DB01FA02FC634400FA02FCF6
:10648000C2F12002BCF1004F20FA02F243EB0200FD
:1064900008BF20F00100704702F1200201FA02FC5F
:1064A000C2F1200250EA4C0021FA02F243EB020052
:1064B00008BF20EADC7070474FF0FF3C06E000BFE9
:1064C0004FF0010C02E000BF4FF0010C4DF804CD7D
:1064D0004FEA40024FEA41037FEA226C18BF7FEA8D
:1064E000236C11D001B052EA530C18BF90EA010F8F
:1064F00058BFB2EB030088BFC81738BF6FEAE1701E
:1065000018BF40F0010070477FEA226C02D15FEAB9
:10651000402C05D17FEA236CE4D15FEA412CE1D025
:106520005DF8040B704700BF844608466146FFE7EC
:106530000FB5FFF7C9FF002848BF10F1000F0FBDCE
:106540004DF808EDFFF7F4FF0CBF012000205DF8C7
:1065500008FB00BF4DF808EDFFF7EAFF34BF01204C
:1065600000205DF808FB00BF4DF808EDFFF7E0FFE5
:1065700094BF012000205DF808FB00BF4DF808ED36
:10658000FFF7D2FF94BF012000205DF808FB00BF99
:106590004DF808EDFFF7C8FF34BF012000205DF87B
:1065A00008FB00BF53B94AB9002908BF00281CBF27
:1065B0004FF0FF314FF0FF30FFF702BCADF1080C98
:1065C0006DE904CE00F006F8DDF804E0DDE9022311
:1065D00004B070472DE9F047089E0D4604468E46EC
:1065E000002B40F082808A42174646D9B2FA82F2E6
:1065F0004AB1C2F1200105FA02F320FA01F19740F5
:1066000041EA030E94404FEA1748230CBEFBF8FC06
:10661000B9B208FB1CEE43EA0E430CFB01F09842B2
:106620000AD9FB180CF1FF3580F01681984240F230
:106630001381ACF1020C3B441B1AA4B2B3FBF8F07B
:1066400008FB103344EA034400FB01F1A14209D9DD
:106650003C1900F1FF3380F00181A14240F2FE803D
:1066600002383C44641A40EA0C4000211EB1D44078
:106670000023C6E90043BDE8F08702B9FFDEB2FAA5
:1066800082F2002A4FD1CB1B4FEA174E1FFA87F830
:106690000121B3FBFEFC250C0EFB1C3345EA034530
:1066A00008FB0CF3AB4207D97D190CF1FF3002D285
:1066B000AB4200F2E7808446ED1AA3B2B5FBFEF0D0
:1066C0000EFB105543EA054408FB00F8A04507D926
:1066D0003C1900F1FF3302D2A04500F2D7801846E2
:1066E000A4EB080440EA0C40C0E78B4208D9002E16
:1066F00000F0AF800021C6E900050846BDE8F0873C
:10670000B3FA83F100294BD1AB4202D3824200F2AB
:10671000B780841A65EB030301209E46002EAAD0A1
:10672000C6E9004EA7E7C2F1200C01FA02F3974038
:1067300020FA0CF04FEA174E21FA0CFC1843BCFB70
:10674000FEF1050C0EFB11CC1FFA87F845EA0C454B
:1067500001FB08F3AB4204FA02F409D97D1901F1F7
:10676000FF3C80F08B80AB4240F2888002393D4490
:10677000EB1A85B2B3FBFEF00EFB103345EA03457E
:1067800000FB08F3AB4207D97D1900F1FF3C71D241
:10679000AB426FD902383D44EB1A40EA014178E739
:1067A000C1F1200C8B4022FA0CF71F4320FA0CF4A5
:1067B00005FA01F34FEA174E25FA0CF51C43230C9A
:1067C000B5FBFEF91FFA87F80EFB195543EA05459C
:1067D00009FB08FAAA4502FA01F200FA01F308D906
:1067E0007D1909F1FF3047D2AA4545D9A9F102091F
:1067F0003D44A5EB0A05A4B2B5FBFEF00EFB105517
:1068000044EA054400FB08F8A04507D93C1900F10B
:10681000FF352DD2A0452BD902383C4440EA09402F
:10682000A4EB0804A0FB02894C45C6464D4619D38B
:1068300016D05EB1B3EB0E0264EB050404FA0CFC57
:10684000CA404CEA0202CC40C6E900240021BDE85F
:10685000F087314630460EE7AC46EDE6184601E7D4
:106860004345E6D2B8EB020E69EB07050138E0E7D5
:106870002846D3E760468FE78146BAE7614677E767
:1068800008464BE7ACF1020C3D4415E702383C44A6
:1068900026E700BF08B51348134B03604FF00043D1
:1068A000436000238360C360036104224261037676
:1068B000437683760122C26180F82030436283628E
:1068C00080F82C304FF480520263072242638263C7
:1068D00080F83C30C36407F0E7FD00B908BD00F064
:1068E00095F9FBE788260020002401400268094B47
:1068F0009A4200D0704782B04FF0B0431A6E42F413
:1069000000721A661B6E03F400730193019B02B0C0
:10691000704700BF002401400268054B9A4200D036
:1069200070474FF0B042136E23F400731366F7E71D
:106930000024014030B585B0044600230193029342
:106940000393FFF7A7FF164808F0E0F9F8B90194A0
:1069500000230293039301A9114807F03DFFC8B932
:106960000F4808F0E3F8C0B90D4C4FF0FF31204656
:1069700007F0D0FE204608F0A9F9204607F029FFCD
:106980000546204608F04EF9284605B030BD00F017
:106990003DF9DCE700F03AF9E2E700F037F9E3E728
:1069A00088260020014B024A1A6070478826002082
:1069B0000024014008B50D48FFF7BCFF98B103461D
:1069C0000B4A12884FF6FF718A4207D040F6E44026
:1069D00000FB02F0B0FBF3F080B205E00548B0FB2D
:1069E000F3F080B200E0002008BD00BF002000B43A
:1069F000AA75FF1FD8084C0030B583B0FFF7DAFF47
:106A000005461F48FFF796FF1E4B1B881E4A12883B
:106A100093421AD000FB05F080081C4CA4FB001424
:106A2000C2EB5410642404FB00F49B1A94FBF3F4AF
:106A30001E3424B20094164B0122002110461BF094
:106A4000EDFB200200B203B030BD00FB05F0114B9E
:106A5000A3FB0023C01A03EB5000C00A4FF47A7363
:106A600003FB00F3A3F53923A3F50C630A4880FB6D
:106A70000320DC17C4EBA0241E3424B2DAE700BFE5
:106A8000001000B0C875FF1FA875FF1F9F00EE091A
:106A9000B44C020801011000AD8BDB6800B583B077
:106AA0004FF0B0439A6C42F004029A649A6C02F080
:106AB00004020192019A9A6C42F001029A649B6C62
:106AC00003F001030093009B002202210F2008F035
:106AD0007FF90F2008F0B0F903B05DF804FB000067
:106AE00070B5064614461D4605E022462B46314643
:106AF000012008F0B3FCD6E90023AB4208BFA24254
:106B000005D0044B1B6913F4002FFAD1EDE70020E8
:106B100070BD00BF0040005800B585B0022301934E
:106B2000029003913AB101A808F060FD40B102283B
:106B30000AD1012005E0694601A808F017FDF5E734
:106B4000002005B05DF804FB6FF00100F9E70000DC
:106B500008B50A480A4B03600023436083604FF680
:106B6000FF724261036243628362C362036309F09E
:106B700085F800B908BD00F049F8FBE7EC260020D5
:106B8000007C004010B590B004463822002102A8D5
:106B90001DF0C2F92268134B9A4201D010B010BD0B
:106BA0004FF4007302934FF00C130A9302A809F0FC
:106BB00097FF98B94FF0B0439A6D42F000429A6542
:106BC0009B6D03F000430193019B00221146272097
:106BD00008F0FEF8272008F02FF9DFE700F016F89C
:106BE000E8E700BF007C004008B50268064B9A4207
:106BF00000D008BD4FF0B042936D23F00043936581
:106C0000272008F027F9F4E7007C004072B6FEE781
:106C100010B59AB04822002108A81DF07DF9002483
:106C200002940394049405940694079409F052F98D
:106C30004FF0B042D2F8903023F01803C2F89030F1
:106C400002F58062136823F4C06343F48063136029
:106C5000136803F4C0630193019B06230893812307
:106C60000B934FF480730C9340230D93139408A857
:106C700009F0C8FA70B94F2302930123039300214E
:106C8000049105910691079102A809F0F7FD18B942
:106C90001AB010BDFFF7BAFFFFF7B8FF08B50E4BEB
:106CA0000E4A9A6007F098FBFFF7B2FF00F000FA77
:106CB0000B4A1060012802D004F084FB04E000F0CD
:106CC000CFFD01E004F082FB054B1B68012BF9D1DD
:106CD00000F0CAFDF8E700BF00ED00E0002000086A
:106CE0002827002008B54FF0B0439A6B42F00042CD
:106CF0009A639A6B22F000429A63FFF729FF044AD5
:106D0000D2F8803043F00053C2F8803008BD00BF95
:106D10000008005800B58FB00E4809F027F8A8B950
:106D20004FF4007300934FF440230893684609F032
:106D3000D7FE4FF0B0439A6B42F000429A639A6BD1
:106D400022F000429A630FB05DF804FBFFF75EFF8C
:106D5000E6E700BFEC2600202DE9F04188B00024D2
:106D600007944FF0B043DA6C42F00202DA64DA6C56
:106D700002F002020292029ADA6C42F00402DA6431
:106D8000DB6C03F004030193019B4FF480560396E0
:106D9000012304930594032306930E4D03A928466B
:106DA00008F058FC4FF40058CDF80C800A4F03A9A6
:106DB000384608F04FFC22464146384608F07EFD32
:106DC00022463146284608F079FD204608B0BDE845
:106DD000F08100BF000400480008004808B50328FF
:106DE0000FD8DFE800F002101D2A00224FF4805176
:106DF000184808F063FD00224FF40051164808F0CF
:106E00005DFD002008BD01224FF48051114808F0BB
:106E100055FD00224FF400510F4808F04FFDF0E7F8
:106E200001224FF480510B4808F048FD01224FF435
:106E30000051094808F042FDE3E701224FF4805178
:106E4000044808F03BFD01224FF40051024808F0CD
:106E500035FDD6E7000400480008004801207047CF
:106E6000012070470120704700B58DB02C22002111
:106E700001A81DF051F81948194B03601F238360C6
:106E800000230361436183614FF08042C26103626A
:106E90004FF4807343620AF02BF8A8B90F480AF048
:106EA00061F9A0B900220892029206924FF00053B5
:106EB00007934FF480730B9301A908480AF076F802
:106EC00040B90DB05DF804FBFFF7A0FEE6E7FFF761
:106ED0009DFEE7E7FFF79AFEF3E700BF2C270020AF
:106EE0000028004010B590B004463822002102A8C6
:106EF0001DF012F822681A4B9A4201D010B010BD52
:106F00004FF4803302934FF480730F9302A809F07B
:106F1000E7FD08BB4FF0B043D3F8902042F40042A5
:106F2000C3F890209A6D42F480629A659B6D03F4D9
:106F300080630193019B00221146022007F048FF65
:106F4000022007F079FF002211462A2007F040FFB7
:106F50002A2007F071FFD1E7FFF758FEDAE700BFFC
:106F6000002800407047704708B507F04BFA012031
:106F7000024BC3F8880009F011F808BD000400585E
:106F800008B507F047FA08BD08B507F043FA00F066
:106F90003DFC08BD08B507F035FA0121002008F0D6
:106FA000A1FF08BD7047FEE7FEE7FEE7FEE7FEE74C
:106FB000704770477047704708B502480AF0FEF8FE
:106FC00008BD00BF2C27002008B5024808F04AF988
:106FD00008BD00BF0028002008B502480AF0AEFD39
:106FE00008BD00BF7027002008B5024808F092FCD9
:106FF00008BD00BFEC26002008B5024809F0F2FEEB
:1070000008BD00BF2C27002008B502480AF084FB09
:1070100008BD00BF6427002008B5054808230360A9
:107020000AF002F900B908BDFFF7F0FDFBE700BF69
:107030006427002000B583B04FF0B0435A6E42F091
:1070400001025A665B6E03F001030193019B00226B
:107050001146322007F0BCFE322007F0EDFE03B0EF
:107060005DF804FB0CB400B583B004AB53F8042BFB
:1070700001931CF0E5F803B05DF804EB02B0704733
:1070800030B585B004460D4602A81BF0DBFBBDF908
:107090000C300093029B054A10212046FFF7E2FFC7
:1070A0002046FEF707FE288005B030BDD84C020808
:1070B00030B583B0404B4FF400421A6102F092FEAB
:1070C00003F042F8054606F0F9F806F07EF90446AA
:1070D0004FF0B042936843F4004393601BF0A0FC70
:1070E00000F028F900F02CF91BF00AF833481BF0E7
:1070F00035F806F005FA1BF037F80CB9012D50D021
:10710000012C4AD00124FFF74DFC1BF041F901216D
:1071100008461BF05DF9012108461BF043F9284B96
:107120000022114610461BF079F80028F7D1254BB4
:107130000022114610461BF071F80028F7D1204BB1
:107140000022114610461BF069F80028F7D11E4BAB
:107150000022114610461BF061F80028F7D114BB3D
:107160001A4B0022114610461BF058F80028F7D1A0
:10717000174B0093174B0022114610461BF04EF898
:107180000028F5D10E4B0022114610461BF046F8A0
:107190000028F7D1204603B030BD002DB3D1002424
:1071A000B1E70124AFE70C4B0022114610461BF05B
:1071B00035F80028F7D1DBE700400058817000085F
:1071C000E44C02080C4D0208344D0208744D0208CC
:1071D000C44D02089C4D02085C4D020808B51BF026
:1071E0000DF908BD10B582B0FFF7E4FB40F6B833E7
:1071F00098420DD8B0F5E16F15D3A0F5E160C0EB72
:10720000C01044000948A0FB0434C4F3C71400E0D4
:10721000FE240094064B0122002102201AF0FEFFFA
:10722000204602B010BD0024F3E700BFB5814E1B1D
:10723000CC4D020808B5FFF7DFFB0346002802DB50
:10724000C3F30F2008BD00F1FF03F9E738B504468A
:10725000164B1B68B3F1FF3F11D0C3711A0A82713C
:107260001A0C42711B0E0371114B1A68C2701B6815
:107270001A0A82701A0C42701B0E037038BD07F098
:10728000D1F8054607F0DAF8054407F0D1F82B0EDF
:10729000E3712B0CA3712B0A63712571030EE3704C
:1072A000030CA370030A63702070E7E78075FF1F6B
:1072B0008475FF1F084B1868B0F1FF3F00D070477E
:1072C00010B507F0AFF8044607F0B2F8444007F0F5
:1072D000B5F8604010BD00BF8075FF1F08B50121E3
:1072E00002201BF05FF808BD08B5002102201BF04A
:1072F00059F808BD0020704708B500F06BF808BDCC
:1073000000B583B00190019800F042F903B05DF838
:1073100004FB08B5012806D007F09EF807F0ACF88A
:1073200007F0BAF808BD07F08FF807F09DF807F0EE
:10733000ABF8F7E708B50020FFF7EBFF08BD00004A
:10734000034AD2F8903043F48043C2F8903070473B
:107350000008005810B503460C4A0D490D48006856
:1073600040B10C4800680344521A934206D8094AB7
:10737000136010BD0748084C0460F2E71CF084FD60
:107380000C2303604FF0FF30F3E700BF00800020C4
:1073900000100000E406002058290020024B9868E5
:1073A000C043024B1860704700280040EC060020E4
:1073B000014B1868704700BFEC060020034B9B6828
:1073C000DB43034A1068181A704700BF00280040CA
:1073D000EC060020044B1B781BB1044B9868C0439B
:1073E00070470020704700BFE806002000280040DA
:1073F0000320704708B501464FF47A7200238002DB
:10740000890DFFF7CFF808BD10B44201C30E121A60
:1074100063F10003990041EA92719400221841F14E
:107420000003D80040EA5270D1008A0A42EA805034
:1074300010BC704710B5074B0122DA65064C4FF4BB
:107440008071204609F08EFC4FF0FF33236300204B
:1074500010BD00BF002800402C27002008B50246C0
:107460000221024809F0BFFE08BD00BF2C27002002
:1074700038B50F4B1B780BB1002038BD0D4C4FF0C9
:10748000FF352563FFF7F0FCFFF7D4FF4FF4807161
:10749000204609F067FC2563204609F043FE0020E2
:1074A000FFF7DCFFFFF77AFF014B01221A70E3E7D9
:1074B000E80600202C27002008B5024600210248DB
:1074C00009F091FE08BD00BF2C27002008B5024638
:1074D0000121024809F087FE08BD00BF2C270020CB
:1074E00010B58CB004462C22002101A81CF014FD1C
:1074F000FFF7A0FF0C4B1868044400230893E443F3
:10750000029406934FF0005307934FF480730B934C
:10751000012201A9054809F049FD10B900200CB06D
:1075200010BDFFF773FBF9E7EC0600202C270020C5
:1075300008B50221014809F05DFE08BD2C27002096
:1075400038B50546094B9C68E443FFF7F1FF00227C
:10755000121940F10003940A44EA8354C2F309006B
:10756000FFF752FF2880204638BD00BF00280040AA
:1075700008B50021014809F03DFE08BD2C27002078
:1075800008B50121014809F035FE08BD2C2700206F
:1075900008B5FFF72FFF064B9A68D243044B9B6850
:1075A000DB439B1A834201D200BFF7E708BD00BF4F
:1075B0000028004008B51BF05FFB08BD08B5FFF7C9
:1075C000B7FF0130FFF74AFF08BD000008B51948B2
:1075D000194B03604FF41653436000238360C3606C
:1075E00003610C22426183614FF4006202624362D4
:1075F00083624FF0005343660BF001F970B900212C
:107600000C480BF0AEFA60B900210A480BF0CEFA34
:1076100050B908480BF081FA48B908BDFFF7F6FAEF
:10762000EDE7FFF7F3FAEFE7FFF7F0FAF1E7FFF71F
:10763000EDFAF2E7702700200080004030B597B0E7
:107640000446002111911291139114911591382241
:1076500003A81CF061FC22682A4B9A4201D017B0A3
:1076600030BD202303934FF40063079303A809F070
:1076700037FA00283FD14FF0B043DA6D42F00102F3
:10768000DA65DA6D02F001020292029ADA6C42F0D7
:107690000102DA64DB6C03F001030193019B0C230C
:1076A00011930223129300251395032314930823A7
:1076B000159311A94FF0904007F0CCFF1248134BDF
:1076C00003601623436010238360C5608023036139
:1076D00045618561C561056207F036FC70B90A4BEA
:1076E000A3679C6200220221262007F071FB26205E
:1076F00007F0A2FBB3E7FFF789FABCE7FFF786FACA
:10770000EDE700BF00800040002800205800024044
:1077100002680C4B9A4200D0704710B504464FF0F7
:10772000B042D36D23F00103D3650C214FF090409C
:1077300008F048F8A06F07F079FC262007F08AFBD4
:1077400010BD00BF0080004008B5074B1860FFF770
:10775000A5F9FFF73BFF054AD2F8803043F080538C
:10776000C2F88030002008BDF40600200008005850
:1077700008B54FF0B043DA6B42F00102DA63DA6B1E
:1077800022F00102DA630448FFF7C2FF0F2007F07E
:1077900061FB002008BD00BF7027002008B50A4625
:1077A000014602480AF0F6F8002008BD70270020C4
:1077B00010B582B0124B18604FF40013009302AB67
:1077C00013E906000F480BF050F90E4B1B68DA69FD
:1077D00012F4803FF9D1DA6912F4800FFBD09A6875
:1077E00042F480029A60074C20460BF07FF9012298
:1077F000054920460BF0CAF8002002B010BD00BFBA
:10780000F0060020702700206028002008B50448FA
:1078100007F09AFB00B908BDFFF7F8F9FBE700BFD6
:107820000028002008B5024B1B680020984708BDBF
:10783000F406002010B50446074B1B682BB1D0F8A6
:107840008C2012B90121054898470122034920469E
:107850000BF09CF810BD00BFF0060020602800204F
:1078600008B500F029F808BD08B54FF0FF301AF050
:107870004BFE08BD08B50B4619B1194600F002FAD7
:1078800008BD002AF9D1FBE718B108B500F0A2FA4B
:1078900008BD704718B108B500F0DCF908BD7047A5
:1078A00008B5002102201AF0DFFD08BD08B500214F
:1078B00001201AF0D9FD08BD00B585B0304801F0AF
:1078C000EFFE012302930020019000932D4B02460E
:1078D00001461AF0A3FC0028F3D1002002900323F4
:1078E000019302230093284B024601461AF096FCAE
:1078F0000028F2D100200290012301930093234B32
:10790000024601461AF08AFC0028F3D108E0204B19
:107910000093204B0022114610461AF07FFC28B13C
:10792000FFF79CFA0228F2D01B4BF1E71B4A00211B
:1079300002201AF09DFE1A4A002101201AF098FE3A
:1079400002F04EFD17480BF075FE17480BF07CFA5D
:1079500002F0E0FBC0B20BF0EDFB144B002211462D
:1079600010461AF05BFC0028F7D1114B002211469B
:1079700010461AF053FC0028F7D105B05DF804FB5F
:10798000AD780008404E0208644E0208884E020896
:10799000344E0208AC4E0208284E0208E1300108BD
:1079A000E5960008B4000020E80000206472020898
:1079B000C84E0208BFF34F8F0549CA6802F4E0625F
:1079C000044B1343CB60BFF34F8F00BFFDE700BFF5
:1079D00000ED00E00400FA0500B583B00090044B10
:1079E0000022114610461AF019FC03B05DF804FBA2
:1079F000604F0208F0B589B0037842788178C47886
:107A0000057946798779C079079006970596049598
:107A10000394029101920093034B002211461046F9
:107A20001AF0FCFB09B0F0BD4C8202082DE9F04FC2
:107A300093B003781093427811928378C2780179D9
:107A400044798579C679077A90F809C090F80AE0F8
:107A500090F80B8090F80C9090F80DA090F80EB074
:107A6000C07B0F90CDF838B0CDF834A0CDF8309071
:107A7000CDF82C80CDF828E0CDF824C008970796E3
:107A800006950594049103920293119A0192109B1A
:107A90000093044B0022114610461AF0BFFB13B0AE
:107AA000BDE8F08F684F020800B585B0030EC0F343
:107AB0000742C0F30721C0B20390029101920093E4
:107AC000044B0022114610461AF0A8FB05B05DF8E1
:107AD00004FB00BF8482020800B583B00090044B11
